{
  "contractName": "A8NFT",
  "abi": [
    {
      "inputs": [],
      "stateMutability": "nonpayable",
      "type": "constructor"
    },
    {
      "anonymous": false,
      "inputs": [
        {
          "indexed": true,
          "internalType": "address",
          "name": "owner",
          "type": "address"
        },
        {
          "indexed": true,
          "internalType": "address",
          "name": "approved",
          "type": "address"
        },
        {
          "indexed": true,
          "internalType": "uint256",
          "name": "tokenId",
          "type": "uint256"
        }
      ],
      "name": "Approval",
      "type": "event"
    },
    {
      "anonymous": false,
      "inputs": [
        {
          "indexed": true,
          "internalType": "address",
          "name": "owner",
          "type": "address"
        },
        {
          "indexed": true,
          "internalType": "address",
          "name": "operator",
          "type": "address"
        },
        {
          "indexed": false,
          "internalType": "bool",
          "name": "approved",
          "type": "bool"
        }
      ],
      "name": "ApprovalForAll",
      "type": "event"
    },
    {
      "anonymous": false,
      "inputs": [
        {
          "indexed": true,
          "internalType": "address",
          "name": "previousOwner",
          "type": "address"
        },
        {
          "indexed": true,
          "internalType": "address",
          "name": "newOwner",
          "type": "address"
        }
      ],
      "name": "OwnershipTransferred",
      "type": "event"
    },
    {
      "anonymous": false,
      "inputs": [
        {
          "indexed": true,
          "internalType": "address",
          "name": "from",
          "type": "address"
        },
        {
          "indexed": true,
          "internalType": "address",
          "name": "to",
          "type": "address"
        },
        {
          "indexed": true,
          "internalType": "uint256",
          "name": "tokenId",
          "type": "uint256"
        }
      ],
      "name": "Transfer",
      "type": "event"
    },
    {
      "inputs": [
        {
          "internalType": "address",
          "name": "to",
          "type": "address"
        },
        {
          "internalType": "uint256",
          "name": "tokenId",
          "type": "uint256"
        }
      ],
      "name": "approve",
      "outputs": [],
      "stateMutability": "nonpayable",
      "type": "function"
    },
    {
      "inputs": [
        {
          "internalType": "address",
          "name": "owner",
          "type": "address"
        }
      ],
      "name": "balanceOf",
      "outputs": [
        {
          "internalType": "uint256",
          "name": "",
          "type": "uint256"
        }
      ],
      "stateMutability": "view",
      "type": "function"
    },
    {
      "inputs": [
        {
          "internalType": "uint256",
          "name": "tokenId",
          "type": "uint256"
        }
      ],
      "name": "burn",
      "outputs": [],
      "stateMutability": "nonpayable",
      "type": "function"
    },
    {
      "inputs": [
        {
          "internalType": "uint256",
          "name": "tokenId",
          "type": "uint256"
        }
      ],
      "name": "getApproved",
      "outputs": [
        {
          "internalType": "address",
          "name": "",
          "type": "address"
        }
      ],
      "stateMutability": "view",
      "type": "function"
    },
    {
      "inputs": [
        {
          "internalType": "address",
          "name": "owner",
          "type": "address"
        },
        {
          "internalType": "address",
          "name": "operator",
          "type": "address"
        }
      ],
      "name": "isApprovedForAll",
      "outputs": [
        {
          "internalType": "bool",
          "name": "",
          "type": "bool"
        }
      ],
      "stateMutability": "view",
      "type": "function"
    },
    {
      "inputs": [],
      "name": "name",
      "outputs": [
        {
          "internalType": "string",
          "name": "",
          "type": "string"
        }
      ],
      "stateMutability": "view",
      "type": "function"
    },
    {
      "inputs": [],
      "name": "owner",
      "outputs": [
        {
          "internalType": "address",
          "name": "",
          "type": "address"
        }
      ],
      "stateMutability": "view",
      "type": "function"
    },
    {
      "inputs": [
        {
          "internalType": "uint256",
          "name": "tokenId",
          "type": "uint256"
        }
      ],
      "name": "ownerOf",
      "outputs": [
        {
          "internalType": "address",
          "name": "",
          "type": "address"
        }
      ],
      "stateMutability": "view",
      "type": "function"
    },
    {
      "inputs": [],
      "name": "renounceOwnership",
      "outputs": [],
      "stateMutability": "nonpayable",
      "type": "function"
    },
    {
      "inputs": [
        {
          "internalType": "address",
          "name": "from",
          "type": "address"
        },
        {
          "internalType": "address",
          "name": "to",
          "type": "address"
        },
        {
          "internalType": "uint256",
          "name": "tokenId",
          "type": "uint256"
        }
      ],
      "name": "safeTransferFrom",
      "outputs": [],
      "stateMutability": "nonpayable",
      "type": "function"
    },
    {
      "inputs": [
        {
          "internalType": "address",
          "name": "from",
          "type": "address"
        },
        {
          "internalType": "address",
          "name": "to",
          "type": "address"
        },
        {
          "internalType": "uint256",
          "name": "tokenId",
          "type": "uint256"
        },
        {
          "internalType": "bytes",
          "name": "data",
          "type": "bytes"
        }
      ],
      "name": "safeTransferFrom",
      "outputs": [],
      "stateMutability": "nonpayable",
      "type": "function"
    },
    {
      "inputs": [
        {
          "internalType": "address",
          "name": "operator",
          "type": "address"
        },
        {
          "internalType": "bool",
          "name": "approved",
          "type": "bool"
        }
      ],
      "name": "setApprovalForAll",
      "outputs": [],
      "stateMutability": "nonpayable",
      "type": "function"
    },
    {
      "inputs": [
        {
          "internalType": "bytes4",
          "name": "interfaceId",
          "type": "bytes4"
        }
      ],
      "name": "supportsInterface",
      "outputs": [
        {
          "internalType": "bool",
          "name": "",
          "type": "bool"
        }
      ],
      "stateMutability": "view",
      "type": "function"
    },
    {
      "inputs": [],
      "name": "symbol",
      "outputs": [
        {
          "internalType": "string",
          "name": "",
          "type": "string"
        }
      ],
      "stateMutability": "view",
      "type": "function"
    },
    {
      "inputs": [
        {
          "internalType": "address",
          "name": "from",
          "type": "address"
        },
        {
          "internalType": "address",
          "name": "to",
          "type": "address"
        },
        {
          "internalType": "uint256",
          "name": "tokenId",
          "type": "uint256"
        }
      ],
      "name": "transferFrom",
      "outputs": [],
      "stateMutability": "nonpayable",
      "type": "function"
    },
    {
      "inputs": [
        {
          "internalType": "address",
          "name": "newOwner",
          "type": "address"
        }
      ],
      "name": "transferOwnership",
      "outputs": [],
      "stateMutability": "nonpayable",
      "type": "function"
    },
    {
      "inputs": [
        {
          "internalType": "address",
          "name": "to",
          "type": "address"
        },
        {
          "internalType": "string",
          "name": "uri",
          "type": "string"
        }
      ],
      "name": "safeMint",
      "outputs": [],
      "stateMutability": "nonpayable",
      "type": "function"
    },
    {
      "inputs": [
        {
          "internalType": "uint256",
          "name": "tokenId",
          "type": "uint256"
        }
      ],
      "name": "tokenURI",
      "outputs": [
        {
          "internalType": "string",
          "name": "",
          "type": "string"
        }
      ],
      "stateMutability": "view",
      "type": "function"
    }
  ],
  "bytecode": "0x60806040523480156200001157600080fd5b506040518060400160405280600681526020017f4138204e465400000000000000000000000000000000000000000000000000008152506040518060400160405280600281526020017f4138000000000000000000000000000000000000000000000000000000000000815250816000908051906020019062000096929190620001a6565b508060019080519060200190620000af929190620001a6565b505050620000d2620000c6620000d860201b60201c565b620000e060201b60201c565b620002ba565b600033905090565b6000600760009054906101000a900473ffffffffffffffffffffffffffffffffffffffff16905081600760006101000a81548173ffffffffffffffffffffffffffffffffffffffff021916908373ffffffffffffffffffffffffffffffffffffffff1602179055508173ffffffffffffffffffffffffffffffffffffffff168173ffffffffffffffffffffffffffffffffffffffff167f8be0079c531659141344cd1fd0a4f28419497f9722a3daafe3b4186f6b6457e060405160405180910390a35050565b828054620001b49062000285565b90600052602060002090601f016020900481019282620001d8576000855562000224565b82601f10620001f357805160ff191683800117855562000224565b8280016001018555821562000224579182015b828111156200022357825182559160200191906001019062000206565b5b50905062000233919062000237565b5090565b5b808211156200025257600081600090555060010162000238565b5090565b7f4e487b7100000000000000000000000000000000000000000000000000000000600052602260045260246000fd5b600060028204905060018216806200029e57607f821691505b602082108103620002b457620002b362000256565b5b50919050565b6130a680620002ca6000396000f3fe608060405234801561001057600080fd5b50600436106101165760003560e01c8063715018a6116100a2578063b88d4fde11610071578063b88d4fde146102cb578063c87b56dd146102e7578063d204c45e14610317578063e985e9c514610333578063f2fde38b1461036357610116565b8063715018a6146102695780638da5cb5b1461027357806395d89b4114610291578063a22cb465146102af57610116565b806323b872dd116100e957806323b872dd146101b557806342842e0e146101d157806342966c68146101ed5780636352211e1461020957806370a082311461023957610116565b806301ffc9a71461011b57806306fdde031461014b578063081812fc14610169578063095ea7b314610199575b600080fd5b61013560048036038101906101309190612053565b61037f565b604051610142919061209b565b60405180910390f35b610153610461565b604051610160919061214f565b60405180910390f35b610183600480360381019061017e91906121a7565b6104f3565b6040516101909190612215565b60405180910390f35b6101b360048036038101906101ae919061225c565b610539565b005b6101cf60048036038101906101ca919061229c565b610650565b005b6101eb60048036038101906101e6919061229c565b6106b0565b005b610207600480360381019061020291906121a7565b6106d0565b005b610223600480360381019061021e91906121a7565b61072c565b6040516102309190612215565b60405180910390f35b610253600480360381019061024e91906122ef565b6107b2565b604051610260919061232b565b60405180910390f35b610271610869565b005b61027b61087d565b6040516102889190612215565b60405180910390f35b6102996108a7565b6040516102a6919061214f565b60405180910390f35b6102c960048036038101906102c49190612372565b610939565b005b6102e560048036038101906102e091906124e7565b61094f565b005b61030160048036038101906102fc91906121a7565b6109b1565b60405161030e919061214f565b60405180910390f35b610331600480360381019061032c919061260b565b6109c3565b005b61034d60048036038101906103489190612667565b6109fc565b60405161035a919061209b565b60405180910390f35b61037d600480360381019061037891906122ef565b610a90565b005b60007f80ac58cd000000000000000000000000000000000000000000000000000000007bffffffffffffffffffffffffffffffffffffffffffffffffffffffff1916827bffffffffffffffffffffffffffffffffffffffffffffffffffffffff1916148061044a57507f5b5e139f000000000000000000000000000000000000000000000000000000007bffffffffffffffffffffffffffffffffffffffffffffffffffffffff1916827bffffffffffffffffffffffffffffffffffffffffffffffffffffffff1916145b8061045a575061045982610b13565b5b9050919050565b606060008054610470906126d6565b80601f016020809104026020016040519081016040528092919081815260200182805461049c906126d6565b80156104e95780601f106104be576101008083540402835291602001916104e9565b820191906000526020600020905b8154815290600101906020018083116104cc57829003601f168201915b5050505050905090565b60006104fe82610b7d565b6004600083815260200190815260200160002060009054906101000a900473ffffffffffffffffffffffffffffffffffffffff169050919050565b60006105448261072c565b90508073ffffffffffffffffffffffffffffffffffffffff168373ffffffffffffffffffffffffffffffffffffffff16036105b4576040517f08c379a00000000000000000000000000000000000000000000000000000000081526004016105ab90612779565b60405180910390fd5b8073ffffffffffffffffffffffffffffffffffffffff166105d3610bc8565b73ffffffffffffffffffffffffffffffffffffffff1614806106025750610601816105fc610bc8565b6109fc565b5b610641576040517f08c379a00000000000000000000000000000000000000000000000000000000081526004016106389061280b565b60405180910390fd5b61064b8383610bd0565b505050565b61066161065b610bc8565b82610c89565b6106a0576040517f08c379a00000000000000000000000000000000000000000000000000000000081526004016106979061289d565b60405180910390fd5b6106ab838383610d1e565b505050565b6106cb8383836040518060200160405280600081525061094f565b505050565b6106e16106db610bc8565b82610c89565b610720576040517f08c379a00000000000000000000000000000000000000000000000000000000081526004016107179061289d565b60405180910390fd5b61072981611017565b50565b60008061073883611023565b9050600073ffffffffffffffffffffffffffffffffffffffff168173ffffffffffffffffffffffffffffffffffffffff16036107a9576040517f08c379a00000000000000000000000000000000000000000000000000000000081526004016107a090612909565b60405180910390fd5b80915050919050565b60008073ffffffffffffffffffffffffffffffffffffffff168273ffffffffffffffffffffffffffffffffffffffff1603610822576040517f08c379a00000000000000000000000000000000000000000000000000000000081526004016108199061299b565b60405180910390fd5b600360008373ffffffffffffffffffffffffffffffffffffffff1673ffffffffffffffffffffffffffffffffffffffff168152602001908152602001600020549050919050565b610871611060565b61087b60006110de565b565b6000600760009054906101000a900473ffffffffffffffffffffffffffffffffffffffff16905090565b6060600180546108b6906126d6565b80601f01602080910402602001604051908101604052809291908181526020018280546108e2906126d6565b801561092f5780601f106109045761010080835404028352916020019161092f565b820191906000526020600020905b81548152906001019060200180831161091257829003601f168201915b5050505050905090565b61094b610944610bc8565b83836111a4565b5050565b61096061095a610bc8565b83610c89565b61099f576040517f08c379a00000000000000000000000000000000000000000000000000000000081526004016109969061289d565b60405180910390fd5b6109ab84848484611310565b50505050565b60606109bc8261136c565b9050919050565b6109cb611060565b60006109d7600861147e565b90506109e3600861148c565b6109ed83826114a2565b6109f781836114c0565b505050565b6000600560008473ffffffffffffffffffffffffffffffffffffffff1673ffffffffffffffffffffffffffffffffffffffff16815260200190815260200160002060008373ffffffffffffffffffffffffffffffffffffffff1673ffffffffffffffffffffffffffffffffffffffff16815260200190815260200160002060009054906101000a900460ff16905092915050565b610a98611060565b600073ffffffffffffffffffffffffffffffffffffffff168173ffffffffffffffffffffffffffffffffffffffff1603610b07576040517f08c379a0000000000000000000000000000000000000000000000000000000008152600401610afe90612a2d565b60405180910390fd5b610b10816110de565b50565b60007f01ffc9a7000000000000000000000000000000000000000000000000000000007bffffffffffffffffffffffffffffffffffffffffffffffffffffffff1916827bffffffffffffffffffffffffffffffffffffffffffffffffffffffff1916149050919050565b610b8681611534565b610bc5576040517f08c379a0000000000000000000000000000000000000000000000000000000008152600401610bbc90612909565b60405180910390fd5b50565b600033905090565b816004600083815260200190815260200160002060006101000a81548173ffffffffffffffffffffffffffffffffffffffff021916908373ffffffffffffffffffffffffffffffffffffffff160217905550808273ffffffffffffffffffffffffffffffffffffffff16610c438361072c565b73ffffffffffffffffffffffffffffffffffffffff167f8c5be1e5ebec7d5bd14f71427d1e84f3dd0314c0f7b2291e5b200ac8c7c3b92560405160405180910390a45050565b600080610c958361072c565b90508073ffffffffffffffffffffffffffffffffffffffff168473ffffffffffffffffffffffffffffffffffffffff161480610cd75750610cd681856109fc565b5b80610d1557508373ffffffffffffffffffffffffffffffffffffffff16610cfd846104f3565b73ffffffffffffffffffffffffffffffffffffffff16145b91505092915050565b8273ffffffffffffffffffffffffffffffffffffffff16610d3e8261072c565b73ffffffffffffffffffffffffffffffffffffffff1614610d94576040517f08c379a0000000000000000000000000000000000000000000000000000000008152600401610d8b90612abf565b60405180910390fd5b600073ffffffffffffffffffffffffffffffffffffffff168273ffffffffffffffffffffffffffffffffffffffff1603610e03576040517f08c379a0000000000000000000000000000000000000000000000000000000008152600401610dfa90612b51565b60405180910390fd5b610e108383836001611575565b8273ffffffffffffffffffffffffffffffffffffffff16610e308261072c565b73ffffffffffffffffffffffffffffffffffffffff1614610e86576040517f08c379a0000000000000000000000000000000000000000000000000000000008152600401610e7d90612abf565b60405180910390fd5b6004600082815260200190815260200160002060006101000a81549073ffffffffffffffffffffffffffffffffffffffff02191690556001600360008573ffffffffffffffffffffffffffffffffffffffff1673ffffffffffffffffffffffffffffffffffffffff168152602001908152602001600020600082825403925050819055506001600360008473ffffffffffffffffffffffffffffffffffffffff1673ffffffffffffffffffffffffffffffffffffffff16815260200190815260200160002060008282540192505081905550816002600083815260200190815260200160002060006101000a81548173ffffffffffffffffffffffffffffffffffffffff021916908373ffffffffffffffffffffffffffffffffffffffff160217905550808273ffffffffffffffffffffffffffffffffffffffff168473ffffffffffffffffffffffffffffffffffffffff167fddf252ad1be2c89b69c2b068fc378daa952ba7f163c4a11628f55a4df523b3ef60405160405180910390a4611012838383600161169b565b505050565b611020816116a1565b50565b60006002600083815260200190815260200160002060009054906101000a900473ffffffffffffffffffffffffffffffffffffffff169050919050565b611068610bc8565b73ffffffffffffffffffffffffffffffffffffffff1661108661087d565b73ffffffffffffffffffffffffffffffffffffffff16146110dc576040517f08c379a00000000000000000000000000000000000000000000000000000000081526004016110d390612bbd565b60405180910390fd5b565b6000600760009054906101000a900473ffffffffffffffffffffffffffffffffffffffff16905081600760006101000a81548173ffffffffffffffffffffffffffffffffffffffff021916908373ffffffffffffffffffffffffffffffffffffffff1602179055508173ffffffffffffffffffffffffffffffffffffffff168173ffffffffffffffffffffffffffffffffffffffff167f8be0079c531659141344cd1fd0a4f28419497f9722a3daafe3b4186f6b6457e060405160405180910390a35050565b8173ffffffffffffffffffffffffffffffffffffffff168373ffffffffffffffffffffffffffffffffffffffff1603611212576040517f08c379a000000000000000000000000000000000000000000000000000000000815260040161120990612c29565b60405180910390fd5b80600560008573ffffffffffffffffffffffffffffffffffffffff1673ffffffffffffffffffffffffffffffffffffffff16815260200190815260200160002060008473ffffffffffffffffffffffffffffffffffffffff1673ffffffffffffffffffffffffffffffffffffffff16815260200190815260200160002060006101000a81548160ff0219169083151502179055508173ffffffffffffffffffffffffffffffffffffffff168373ffffffffffffffffffffffffffffffffffffffff167f17307eab39ab6107e8899845ad3d59bd9653f200f220920489ca2b5937696c3183604051611303919061209b565b60405180910390a3505050565b61131b848484610d1e565b611327848484846116f4565b611366576040517f08c379a000000000000000000000000000000000000000000000000000000000815260040161135d90612cbb565b60405180910390fd5b50505050565b606061137782610b7d565b6000600660008481526020019081526020016000208054611397906126d6565b80601f01602080910402602001604051908101604052809291908181526020018280546113c3906126d6565b80156114105780601f106113e557610100808354040283529160200191611410565b820191906000526020600020905b8154815290600101906020018083116113f357829003601f168201915b50505050509050600061142161187b565b90506000815103611436578192505050611479565b60008251111561146b578082604051602001611453929190612d17565b60405160208183030381529060405292505050611479565b61147484611892565b925050505b919050565b600081600001549050919050565b6001816000016000828254019250508190555050565b6114bc8282604051806020016040528060008152506118fa565b5050565b6114c982611534565b611508576040517f08c379a00000000000000000000000000000000000000000000000000000000081526004016114ff90612dad565b60405180910390fd5b8060066000848152602001908152602001600020908051906020019061152f929190611f04565b505050565b60008073ffffffffffffffffffffffffffffffffffffffff1661155683611023565b73ffffffffffffffffffffffffffffffffffffffff1614159050919050565b600181111561169557600073ffffffffffffffffffffffffffffffffffffffff168473ffffffffffffffffffffffffffffffffffffffff16146116095780600360008673ffffffffffffffffffffffffffffffffffffffff1673ffffffffffffffffffffffffffffffffffffffff16815260200190815260200160002060008282546116019190612dfc565b925050819055505b600073ffffffffffffffffffffffffffffffffffffffff168373ffffffffffffffffffffffffffffffffffffffff16146116945780600360008573ffffffffffffffffffffffffffffffffffffffff1673ffffffffffffffffffffffffffffffffffffffff168152602001908152602001600020600082825461168c9190612e30565b925050819055505b5b50505050565b50505050565b6116aa81611955565b60006006600083815260200190815260200160002080546116ca906126d6565b9050146116f1576006600082815260200190815260200160002060006116f09190611f8a565b5b50565b60006117158473ffffffffffffffffffffffffffffffffffffffff16611aa3565b1561186e578373ffffffffffffffffffffffffffffffffffffffff1663150b7a0261173e610bc8565b8786866040518563ffffffff1660e01b81526004016117609493929190612edb565b6020604051808303816000875af192505050801561179c57506040513d601f19601f820116820180604052508101906117999190612f3c565b60015b61181e573d80600081146117cc576040519150601f19603f3d011682016040523d82523d6000602084013e6117d1565b606091505b506000815103611816576040517f08c379a000000000000000000000000000000000000000000000000000000000815260040161180d90612cbb565b60405180910390fd5b805181602001fd5b63150b7a0260e01b7bffffffffffffffffffffffffffffffffffffffffffffffffffffffff1916817bffffffffffffffffffffffffffffffffffffffffffffffffffffffff191614915050611873565b600190505b949350505050565b606060405180602001604052806000815250905090565b606061189d82610b7d565b60006118a761187b565b905060008151116118c757604051806020016040528060008152506118f2565b806118d184611ac6565b6040516020016118e2929190612d17565b6040516020818303038152906040525b915050919050565b6119048383611b94565b61191160008484846116f4565b611950576040517f08c379a000000000000000000000000000000000000000000000000000000000815260040161194790612cbb565b60405180910390fd5b505050565b60006119608261072c565b9050611970816000846001611575565b6119798261072c565b90506004600083815260200190815260200160002060006101000a81549073ffffffffffffffffffffffffffffffffffffffff02191690556001600360008373ffffffffffffffffffffffffffffffffffffffff1673ffffffffffffffffffffffffffffffffffffffff168152602001908152602001600020600082825403925050819055506002600083815260200190815260200160002060006101000a81549073ffffffffffffffffffffffffffffffffffffffff021916905581600073ffffffffffffffffffffffffffffffffffffffff168273ffffffffffffffffffffffffffffffffffffffff167fddf252ad1be2c89b69c2b068fc378daa952ba7f163c4a11628f55a4df523b3ef60405160405180910390a4611a9f81600084600161169b565b5050565b6000808273ffffffffffffffffffffffffffffffffffffffff163b119050919050565b606060006001611ad584611db1565b01905060008167ffffffffffffffff811115611af457611af36123bc565b5b6040519080825280601f01601f191660200182016040528015611b265781602001600182028036833780820191505090505b509050600082602001820190505b600115611b89578080600190039150507f3031323334353637383961626364656600000000000000000000000000000000600a86061a8153600a8581611b7d57611b7c612f69565b5b04945060008503611b34575b819350505050919050565b600073ffffffffffffffffffffffffffffffffffffffff168273ffffffffffffffffffffffffffffffffffffffff1603611c03576040517f08c379a0000000000000000000000000000000000000000000000000000000008152600401611bfa90612fe4565b60405180910390fd5b611c0c81611534565b15611c4c576040517f08c379a0000000000000000000000000000000000000000000000000000000008152600401611c4390613050565b60405180910390fd5b611c5a600083836001611575565b611c6381611534565b15611ca3576040517f08c379a0000000000000000000000000000000000000000000000000000000008152600401611c9a90613050565b60405180910390fd5b6001600360008473ffffffffffffffffffffffffffffffffffffffff1673ffffffffffffffffffffffffffffffffffffffff16815260200190815260200160002060008282540192505081905550816002600083815260200190815260200160002060006101000a81548173ffffffffffffffffffffffffffffffffffffffff021916908373ffffffffffffffffffffffffffffffffffffffff160217905550808273ffffffffffffffffffffffffffffffffffffffff16600073ffffffffffffffffffffffffffffffffffffffff167fddf252ad1be2c89b69c2b068fc378daa952ba7f163c4a11628f55a4df523b3ef60405160405180910390a4611dad60008383600161169b565b5050565b600080600090507a184f03e93ff9f4daa797ed6e38ed64bf6a1f0100000000000000008310611e0f577a184f03e93ff9f4daa797ed6e38ed64bf6a1f0100000000000000008381611e0557611e04612f69565b5b0492506040810190505b6d04ee2d6d415b85acef81000000008310611e4c576d04ee2d6d415b85acef81000000008381611e4257611e41612f69565b5b0492506020810190505b662386f26fc100008310611e7b57662386f26fc100008381611e7157611e70612f69565b5b0492506010810190505b6305f5e1008310611ea4576305f5e1008381611e9a57611e99612f69565b5b0492506008810190505b6127108310611ec9576127108381611ebf57611ebe612f69565b5b0492506004810190505b60648310611eec5760648381611ee257611ee1612f69565b5b0492506002810190505b600a8310611efb576001810190505b80915050919050565b828054611f10906126d6565b90600052602060002090601f016020900481019282611f325760008555611f79565b82601f10611f4b57805160ff1916838001178555611f79565b82800160010185558215611f79579182015b82811115611f78578251825591602001919060010190611f5d565b5b509050611f869190611fca565b5090565b508054611f96906126d6565b6000825580601f10611fa85750611fc7565b601f016020900490600052602060002090810190611fc69190611fca565b5b50565b5b80821115611fe3576000816000905550600101611fcb565b5090565b6000604051905090565b600080fd5b600080fd5b60007fffffffff0000000000000000000000000000000000000000000000000000000082169050919050565b61203081611ffb565b811461203b57600080fd5b50565b60008135905061204d81612027565b92915050565b60006020828403121561206957612068611ff1565b5b60006120778482850161203e565b91505092915050565b60008115159050919050565b61209581612080565b82525050565b60006020820190506120b0600083018461208c565b92915050565b600081519050919050565b600082825260208201905092915050565b60005b838110156120f05780820151818401526020810190506120d5565b838111156120ff576000848401525b50505050565b6000601f19601f8301169050919050565b6000612121826120b6565b61212b81856120c1565b935061213b8185602086016120d2565b61214481612105565b840191505092915050565b600060208201905081810360008301526121698184612116565b905092915050565b6000819050919050565b61218481612171565b811461218f57600080fd5b50565b6000813590506121a18161217b565b92915050565b6000602082840312156121bd576121bc611ff1565b5b60006121cb84828501612192565b91505092915050565b600073ffffffffffffffffffffffffffffffffffffffff82169050919050565b60006121ff826121d4565b9050919050565b61220f816121f4565b82525050565b600060208201905061222a6000830184612206565b92915050565b612239816121f4565b811461224457600080fd5b50565b60008135905061225681612230565b92915050565b6000806040838503121561227357612272611ff1565b5b600061228185828601612247565b925050602061229285828601612192565b9150509250929050565b6000806000606084860312156122b5576122b4611ff1565b5b60006122c386828701612247565b93505060206122d486828701612247565b92505060406122e586828701612192565b9150509250925092565b60006020828403121561230557612304611ff1565b5b600061231384828501612247565b91505092915050565b61232581612171565b82525050565b6000602082019050612340600083018461231c565b92915050565b61234f81612080565b811461235a57600080fd5b50565b60008135905061236c81612346565b92915050565b6000806040838503121561238957612388611ff1565b5b600061239785828601612247565b92505060206123a88582860161235d565b9150509250929050565b600080fd5b600080fd5b7f4e487b7100000000000000000000000000000000000000000000000000000000600052604160045260246000fd5b6123f482612105565b810181811067ffffffffffffffff82111715612413576124126123bc565b5b80604052505050565b6000612426611fe7565b905061243282826123eb565b919050565b600067ffffffffffffffff821115612452576124516123bc565b5b61245b82612105565b9050602081019050919050565b82818337600083830152505050565b600061248a61248584612437565b61241c565b9050828152602081018484840111156124a6576124a56123b7565b5b6124b1848285612468565b509392505050565b600082601f8301126124ce576124cd6123b2565b5b81356124de848260208601612477565b91505092915050565b6000806000806080858703121561250157612500611ff1565b5b600061250f87828801612247565b945050602061252087828801612247565b935050604061253187828801612192565b925050606085013567ffffffffffffffff81111561255257612551611ff6565b5b61255e878288016124b9565b91505092959194509250565b600067ffffffffffffffff821115612585576125846123bc565b5b61258e82612105565b9050602081019050919050565b60006125ae6125a98461256a565b61241c565b9050828152602081018484840111156125ca576125c96123b7565b5b6125d5848285612468565b509392505050565b600082601f8301126125f2576125f16123b2565b5b813561260284826020860161259b565b91505092915050565b6000806040838503121561262257612621611ff1565b5b600061263085828601612247565b925050602083013567ffffffffffffffff81111561265157612650611ff6565b5b61265d858286016125dd565b9150509250929050565b6000806040838503121561267e5761267d611ff1565b5b600061268c85828601612247565b925050602061269d85828601612247565b9150509250929050565b7f4e487b7100000000000000000000000000000000000000000000000000000000600052602260045260246000fd5b600060028204905060018216806126ee57607f821691505b602082108103612701576127006126a7565b5b50919050565b7f4552433732313a20617070726f76616c20746f2063757272656e74206f776e6560008201527f7200000000000000000000000000000000000000000000000000000000000000602082015250565b60006127636021836120c1565b915061276e82612707565b604082019050919050565b6000602082019050818103600083015261279281612756565b9050919050565b7f4552433732313a20617070726f76652063616c6c6572206973206e6f7420746f60008201527f6b656e206f776e6572206f7220617070726f76656420666f7220616c6c000000602082015250565b60006127f5603d836120c1565b915061280082612799565b604082019050919050565b60006020820190508181036000830152612824816127e8565b9050919050565b7f4552433732313a2063616c6c6572206973206e6f7420746f6b656e206f776e6560008201527f72206f7220617070726f76656400000000000000000000000000000000000000602082015250565b6000612887602d836120c1565b91506128928261282b565b604082019050919050565b600060208201905081810360008301526128b68161287a565b9050919050565b7f4552433732313a20696e76616c696420746f6b656e2049440000000000000000600082015250565b60006128f36018836120c1565b91506128fe826128bd565b602082019050919050565b60006020820190508181036000830152612922816128e6565b9050919050565b7f4552433732313a2061646472657373207a65726f206973206e6f74206120766160008201527f6c6964206f776e65720000000000000000000000000000000000000000000000602082015250565b60006129856029836120c1565b915061299082612929565b604082019050919050565b600060208201905081810360008301526129b481612978565b9050919050565b7f4f776e61626c653a206e6577206f776e657220697320746865207a65726f206160008201527f6464726573730000000000000000000000000000000000000000000000000000602082015250565b6000612a176026836120c1565b9150612a22826129bb565b604082019050919050565b60006020820190508181036000830152612a4681612a0a565b9050919050565b7f4552433732313a207472616e736665722066726f6d20696e636f72726563742060008201527f6f776e6572000000000000000000000000000000000000000000000000000000602082015250565b6000612aa96025836120c1565b9150612ab482612a4d565b604082019050919050565b60006020820190508181036000830152612ad881612a9c565b9050919050565b7f4552433732313a207472616e7366657220746f20746865207a65726f2061646460008201527f7265737300000000000000000000000000000000000000000000000000000000602082015250565b6000612b3b6024836120c1565b9150612b4682612adf565b604082019050919050565b60006020820190508181036000830152612b6a81612b2e565b9050919050565b7f4f776e61626c653a2063616c6c6572206973206e6f7420746865206f776e6572600082015250565b6000612ba76020836120c1565b9150612bb282612b71565b602082019050919050565b60006020820190508181036000830152612bd681612b9a565b9050919050565b7f4552433732313a20617070726f766520746f2063616c6c657200000000000000600082015250565b6000612c136019836120c1565b9150612c1e82612bdd565b602082019050919050565b60006020820190508181036000830152612c4281612c06565b9050919050565b7f4552433732313a207472616e7366657220746f206e6f6e20455243373231526560008201527f63656976657220696d706c656d656e7465720000000000000000000000000000602082015250565b6000612ca56032836120c1565b9150612cb082612c49565b604082019050919050565b60006020820190508181036000830152612cd481612c98565b9050919050565b600081905092915050565b6000612cf1826120b6565b612cfb8185612cdb565b9350612d0b8185602086016120d2565b80840191505092915050565b6000612d238285612ce6565b9150612d2f8284612ce6565b91508190509392505050565b7f45524337323155524953746f726167653a2055524920736574206f66206e6f6e60008201527f6578697374656e7420746f6b656e000000000000000000000000000000000000602082015250565b6000612d97602e836120c1565b9150612da282612d3b565b604082019050919050565b60006020820190508181036000830152612dc681612d8a565b9050919050565b7f4e487b7100000000000000000000000000000000000000000000000000000000600052601160045260246000fd5b6000612e0782612171565b9150612e1283612171565b925082821015612e2557612e24612dcd565b5b828203905092915050565b6000612e3b82612171565b9150612e4683612171565b9250827fffffffffffffffffffffffffffffffffffffffffffffffffffffffffffffffff03821115612e7b57612e7a612dcd565b5b828201905092915050565b600081519050919050565b600082825260208201905092915050565b6000612ead82612e86565b612eb78185612e91565b9350612ec78185602086016120d2565b612ed081612105565b840191505092915050565b6000608082019050612ef06000830187612206565b612efd6020830186612206565b612f0a604083018561231c565b8181036060830152612f1c8184612ea2565b905095945050505050565b600081519050612f3681612027565b92915050565b600060208284031215612f5257612f51611ff1565b5b6000612f6084828501612f27565b91505092915050565b7f4e487b7100000000000000000000000000000000000000000000000000000000600052601260045260246000fd5b7f4552433732313a206d696e7420746f20746865207a65726f2061646472657373600082015250565b6000612fce6020836120c1565b9150612fd982612f98565b602082019050919050565b60006020820190508181036000830152612ffd81612fc1565b9050919050565b7f4552433732313a20746f6b656e20616c7265616479206d696e74656400000000600082015250565b600061303a601c836120c1565b915061304582613004565b602082019050919050565b600060208201905081810360008301526130698161302d565b905091905056fea2646970667358221220cb29c6ef3ca13e752818f889c0b885e460295cc062f6fb94c795f6aee084134464736f6c634300080d0033",
  "immutableReferences": {},
  "source": "// SPDX-License-Identifier: MIT\npragma solidity ^0.8.9;\n\nimport \"@openzeppelin/contracts/token/ERC721/ERC721.sol\";\nimport \"@openzeppelin/contracts/token/ERC721/extensions/ERC721URIStorage.sol\";\nimport \"@openzeppelin/contracts/token/ERC721/extensions/ERC721Burnable.sol\";\nimport \"@openzeppelin/contracts/access/Ownable.sol\";\nimport \"@openzeppelin/contracts/utils/Counters.sol\";\n\ncontract A8NFT is ERC721, ERC721URIStorage, ERC721Burnable, Ownable {\n    using Counters for Counters.Counter;\n\n    Counters.Counter private _tokenIdCounter;\n\n    constructor() ERC721(\"A8 NFT\", \"A8\") {}\n\n    function safeMint(address to, string memory uri) public onlyOwner {\n        uint256 tokenId = _tokenIdCounter.current();\n        _tokenIdCounter.increment();\n        _safeMint(to, tokenId);\n        _setTokenURI(tokenId, uri);\n    }\n\n    // The following functions are overrides required by Solidity.\n\n    function _burn(uint256 tokenId) internal override(ERC721, ERC721URIStorage) {\n        super._burn(tokenId);\n    }\n\n    function tokenURI(uint256 tokenId)\n        public\n        view\n        override(ERC721, ERC721URIStorage)\n        returns (string memory)\n    {\n        return super.tokenURI(tokenId);\n    }\n}",
  "sourcePath": "/Users/lucas/Desktop/A8/Smartcontract/A8-NFT/contracts/A8-NFT.sol",
  "compiler": {
    "name": "solc",
    "version": "0.8.13+commit.abaa5c0e.Emscripten.clang"
  },
  "schemaVersion": "3.4.11",
  "updatedAt": "2023-02-15T07:40:41.219Z",
  "devdoc": {
    "kind": "dev",
    "methods": {
      "approve(address,uint256)": {
        "details": "See {IERC721-approve}."
      },
      "balanceOf(address)": {
        "details": "See {IERC721-balanceOf}."
      },
      "burn(uint256)": {
        "details": "Burns `tokenId`. See {ERC721-_burn}. Requirements: - The caller must own `tokenId` or be an approved operator."
      },
      "getApproved(uint256)": {
        "details": "See {IERC721-getApproved}."
      },
      "isApprovedForAll(address,address)": {
        "details": "See {IERC721-isApprovedForAll}."
      },
      "name()": {
        "details": "See {IERC721Metadata-name}."
      },
      "owner()": {
        "details": "Returns the address of the current owner."
      },
      "ownerOf(uint256)": {
        "details": "See {IERC721-ownerOf}."
      },
      "renounceOwnership()": {
        "details": "Leaves the contract without owner. It will not be possible to call `onlyOwner` functions anymore. Can only be called by the current owner. NOTE: Renouncing ownership will leave the contract without an owner, thereby removing any functionality that is only available to the owner."
      },
      "safeTransferFrom(address,address,uint256)": {
        "details": "See {IERC721-safeTransferFrom}."
      },
      "safeTransferFrom(address,address,uint256,bytes)": {
        "details": "See {IERC721-safeTransferFrom}."
      },
      "setApprovalForAll(address,bool)": {
        "details": "See {IERC721-setApprovalForAll}."
      },
      "supportsInterface(bytes4)": {
        "details": "See {IERC165-supportsInterface}."
      },
      "symbol()": {
        "details": "See {IERC721Metadata-symbol}."
      },
      "transferFrom(address,address,uint256)": {
        "details": "See {IERC721-transferFrom}."
      },
      "transferOwnership(address)": {
        "details": "Transfers ownership of the contract to a new account (`newOwner`). Can only be called by the current owner."
      }
    },
    "version": 1
  },
  "userdoc": {
    "kind": "user",
    "methods": {},
    "version": 1
  }
}