{
  "contractName": "Space3",
  "abi": [
    {
      "inputs": [],
      "stateMutability": "nonpayable",
      "type": "constructor"
    },
    {
      "anonymous": false,
      "inputs": [
        {
          "indexed": true,
          "internalType": "address",
          "name": "account",
          "type": "address"
        },
        {
          "indexed": true,
          "internalType": "address",
          "name": "operator",
          "type": "address"
        },
        {
          "indexed": false,
          "internalType": "bool",
          "name": "approved",
          "type": "bool"
        }
      ],
      "name": "ApprovalForAll",
      "type": "event"
    },
    {
      "anonymous": false,
      "inputs": [
        {
          "indexed": true,
          "internalType": "bytes32",
          "name": "role",
          "type": "bytes32"
        },
        {
          "indexed": true,
          "internalType": "bytes32",
          "name": "previousAdminRole",
          "type": "bytes32"
        },
        {
          "indexed": true,
          "internalType": "bytes32",
          "name": "newAdminRole",
          "type": "bytes32"
        }
      ],
      "name": "RoleAdminChanged",
      "type": "event"
    },
    {
      "anonymous": false,
      "inputs": [
        {
          "indexed": true,
          "internalType": "bytes32",
          "name": "role",
          "type": "bytes32"
        },
        {
          "indexed": true,
          "internalType": "address",
          "name": "account",
          "type": "address"
        },
        {
          "indexed": true,
          "internalType": "address",
          "name": "sender",
          "type": "address"
        }
      ],
      "name": "RoleGranted",
      "type": "event"
    },
    {
      "anonymous": false,
      "inputs": [
        {
          "indexed": true,
          "internalType": "bytes32",
          "name": "role",
          "type": "bytes32"
        },
        {
          "indexed": true,
          "internalType": "address",
          "name": "account",
          "type": "address"
        },
        {
          "indexed": true,
          "internalType": "address",
          "name": "sender",
          "type": "address"
        }
      ],
      "name": "RoleRevoked",
      "type": "event"
    },
    {
      "anonymous": false,
      "inputs": [
        {
          "indexed": true,
          "internalType": "address",
          "name": "operator",
          "type": "address"
        },
        {
          "indexed": true,
          "internalType": "address",
          "name": "from",
          "type": "address"
        },
        {
          "indexed": true,
          "internalType": "address",
          "name": "to",
          "type": "address"
        },
        {
          "indexed": false,
          "internalType": "uint256[]",
          "name": "ids",
          "type": "uint256[]"
        },
        {
          "indexed": false,
          "internalType": "uint256[]",
          "name": "values",
          "type": "uint256[]"
        }
      ],
      "name": "TransferBatch",
      "type": "event"
    },
    {
      "anonymous": false,
      "inputs": [
        {
          "indexed": true,
          "internalType": "address",
          "name": "operator",
          "type": "address"
        },
        {
          "indexed": true,
          "internalType": "address",
          "name": "from",
          "type": "address"
        },
        {
          "indexed": true,
          "internalType": "address",
          "name": "to",
          "type": "address"
        },
        {
          "indexed": false,
          "internalType": "uint256",
          "name": "id",
          "type": "uint256"
        },
        {
          "indexed": false,
          "internalType": "uint256",
          "name": "value",
          "type": "uint256"
        }
      ],
      "name": "TransferSingle",
      "type": "event"
    },
    {
      "anonymous": false,
      "inputs": [
        {
          "indexed": false,
          "internalType": "string",
          "name": "value",
          "type": "string"
        },
        {
          "indexed": true,
          "internalType": "uint256",
          "name": "id",
          "type": "uint256"
        }
      ],
      "name": "URI",
      "type": "event"
    },
    {
      "inputs": [],
      "name": "DEFAULT_ADMIN_ROLE",
      "outputs": [
        {
          "internalType": "bytes32",
          "name": "",
          "type": "bytes32"
        }
      ],
      "stateMutability": "view",
      "type": "function"
    },
    {
      "inputs": [],
      "name": "MINTER_ROLE",
      "outputs": [
        {
          "internalType": "bytes32",
          "name": "",
          "type": "bytes32"
        }
      ],
      "stateMutability": "view",
      "type": "function"
    },
    {
      "inputs": [
        {
          "internalType": "address",
          "name": "account",
          "type": "address"
        },
        {
          "internalType": "uint256",
          "name": "id",
          "type": "uint256"
        }
      ],
      "name": "balanceOf",
      "outputs": [
        {
          "internalType": "uint256",
          "name": "",
          "type": "uint256"
        }
      ],
      "stateMutability": "view",
      "type": "function"
    },
    {
      "inputs": [
        {
          "internalType": "address[]",
          "name": "accounts",
          "type": "address[]"
        },
        {
          "internalType": "uint256[]",
          "name": "ids",
          "type": "uint256[]"
        }
      ],
      "name": "balanceOfBatch",
      "outputs": [
        {
          "internalType": "uint256[]",
          "name": "",
          "type": "uint256[]"
        }
      ],
      "stateMutability": "view",
      "type": "function"
    },
    {
      "inputs": [
        {
          "internalType": "address",
          "name": "account",
          "type": "address"
        },
        {
          "internalType": "uint256",
          "name": "id",
          "type": "uint256"
        },
        {
          "internalType": "uint256",
          "name": "value",
          "type": "uint256"
        }
      ],
      "name": "burn",
      "outputs": [],
      "stateMutability": "nonpayable",
      "type": "function"
    },
    {
      "inputs": [
        {
          "internalType": "address",
          "name": "account",
          "type": "address"
        },
        {
          "internalType": "uint256[]",
          "name": "ids",
          "type": "uint256[]"
        },
        {
          "internalType": "uint256[]",
          "name": "values",
          "type": "uint256[]"
        }
      ],
      "name": "burnBatch",
      "outputs": [],
      "stateMutability": "nonpayable",
      "type": "function"
    },
    {
      "inputs": [
        {
          "internalType": "uint256",
          "name": "id",
          "type": "uint256"
        }
      ],
      "name": "exists",
      "outputs": [
        {
          "internalType": "bool",
          "name": "",
          "type": "bool"
        }
      ],
      "stateMutability": "view",
      "type": "function"
    },
    {
      "inputs": [
        {
          "internalType": "bytes32",
          "name": "role",
          "type": "bytes32"
        }
      ],
      "name": "getRoleAdmin",
      "outputs": [
        {
          "internalType": "bytes32",
          "name": "",
          "type": "bytes32"
        }
      ],
      "stateMutability": "view",
      "type": "function"
    },
    {
      "inputs": [
        {
          "internalType": "bytes32",
          "name": "role",
          "type": "bytes32"
        },
        {
          "internalType": "address",
          "name": "account",
          "type": "address"
        }
      ],
      "name": "grantRole",
      "outputs": [],
      "stateMutability": "nonpayable",
      "type": "function"
    },
    {
      "inputs": [
        {
          "internalType": "bytes32",
          "name": "role",
          "type": "bytes32"
        },
        {
          "internalType": "address",
          "name": "account",
          "type": "address"
        }
      ],
      "name": "hasRole",
      "outputs": [
        {
          "internalType": "bool",
          "name": "",
          "type": "bool"
        }
      ],
      "stateMutability": "view",
      "type": "function"
    },
    {
      "inputs": [
        {
          "internalType": "address",
          "name": "account",
          "type": "address"
        },
        {
          "internalType": "address",
          "name": "operator",
          "type": "address"
        }
      ],
      "name": "isApprovedForAll",
      "outputs": [
        {
          "internalType": "bool",
          "name": "",
          "type": "bool"
        }
      ],
      "stateMutability": "view",
      "type": "function"
    },
    {
      "inputs": [
        {
          "internalType": "bytes32",
          "name": "role",
          "type": "bytes32"
        },
        {
          "internalType": "address",
          "name": "account",
          "type": "address"
        }
      ],
      "name": "renounceRole",
      "outputs": [],
      "stateMutability": "nonpayable",
      "type": "function"
    },
    {
      "inputs": [
        {
          "internalType": "bytes32",
          "name": "role",
          "type": "bytes32"
        },
        {
          "internalType": "address",
          "name": "account",
          "type": "address"
        }
      ],
      "name": "revokeRole",
      "outputs": [],
      "stateMutability": "nonpayable",
      "type": "function"
    },
    {
      "inputs": [
        {
          "internalType": "address",
          "name": "from",
          "type": "address"
        },
        {
          "internalType": "address",
          "name": "to",
          "type": "address"
        },
        {
          "internalType": "uint256[]",
          "name": "ids",
          "type": "uint256[]"
        },
        {
          "internalType": "uint256[]",
          "name": "amounts",
          "type": "uint256[]"
        },
        {
          "internalType": "bytes",
          "name": "data",
          "type": "bytes"
        }
      ],
      "name": "safeBatchTransferFrom",
      "outputs": [],
      "stateMutability": "nonpayable",
      "type": "function"
    },
    {
      "inputs": [
        {
          "internalType": "address",
          "name": "from",
          "type": "address"
        },
        {
          "internalType": "address",
          "name": "to",
          "type": "address"
        },
        {
          "internalType": "uint256",
          "name": "id",
          "type": "uint256"
        },
        {
          "internalType": "uint256",
          "name": "amount",
          "type": "uint256"
        },
        {
          "internalType": "bytes",
          "name": "data",
          "type": "bytes"
        }
      ],
      "name": "safeTransferFrom",
      "outputs": [],
      "stateMutability": "nonpayable",
      "type": "function"
    },
    {
      "inputs": [
        {
          "internalType": "address",
          "name": "operator",
          "type": "address"
        },
        {
          "internalType": "bool",
          "name": "approved",
          "type": "bool"
        }
      ],
      "name": "setApprovalForAll",
      "outputs": [],
      "stateMutability": "nonpayable",
      "type": "function"
    },
    {
      "inputs": [
        {
          "internalType": "uint256",
          "name": "id",
          "type": "uint256"
        }
      ],
      "name": "totalSupply",
      "outputs": [
        {
          "internalType": "uint256",
          "name": "",
          "type": "uint256"
        }
      ],
      "stateMutability": "view",
      "type": "function"
    },
    {
      "inputs": [
        {
          "internalType": "address",
          "name": "to",
          "type": "address"
        },
        {
          "internalType": "uint256",
          "name": "amount",
          "type": "uint256"
        },
        {
          "internalType": "string",
          "name": "url",
          "type": "string"
        },
        {
          "internalType": "bytes",
          "name": "data",
          "type": "bytes"
        }
      ],
      "name": "mint",
      "outputs": [],
      "stateMutability": "nonpayable",
      "type": "function"
    },
    {
      "inputs": [
        {
          "internalType": "address",
          "name": "to",
          "type": "address"
        },
        {
          "internalType": "uint256[]",
          "name": "ids",
          "type": "uint256[]"
        },
        {
          "internalType": "uint256[]",
          "name": "amounts",
          "type": "uint256[]"
        },
        {
          "internalType": "bytes",
          "name": "data",
          "type": "bytes"
        }
      ],
      "name": "mintBatch",
      "outputs": [],
      "stateMutability": "nonpayable",
      "type": "function"
    },
    {
      "inputs": [],
      "name": "getCurrentTokenId",
      "outputs": [
        {
          "internalType": "uint256",
          "name": "",
          "type": "uint256"
        }
      ],
      "stateMutability": "view",
      "type": "function"
    },
    {
      "inputs": [
        {
          "internalType": "uint256",
          "name": "tokenId",
          "type": "uint256"
        }
      ],
      "name": "uri",
      "outputs": [
        {
          "internalType": "string",
          "name": "",
          "type": "string"
        }
      ],
      "stateMutability": "view",
      "type": "function"
    },
    {
      "inputs": [
        {
          "internalType": "bytes4",
          "name": "interfaceId",
          "type": "bytes4"
        }
      ],
      "name": "supportsInterface",
      "outputs": [
        {
          "internalType": "bool",
          "name": "",
          "type": "bool"
        }
      ],
      "stateMutability": "view",
      "type": "function"
    }
  ],
  "bytecode": "0x60806040523480156200001157600080fd5b506040518060200160405280600081525062000033816200008160201b60201c565b50620000496000801b336200009660201b60201c565b6200007b7f9f2df0fed2c77648de5860a4cc508cd0818c85b8b8a1ab4ceeef8d981c8956a6336200009660201b60201c565b6200055c565b806002908162000092919062000475565b5050565b620000a882826200018860201b60201c565b620001845760016003600084815260200190815260200160002060000160008373ffffffffffffffffffffffffffffffffffffffff1673ffffffffffffffffffffffffffffffffffffffff16815260200190815260200160002060006101000a81548160ff02191690831515021790555062000129620001f360201b60201c565b73ffffffffffffffffffffffffffffffffffffffff168173ffffffffffffffffffffffffffffffffffffffff16837f2f8788117e7eff1d82e926ec794901d17c78024a50270940304540a733656f0d60405160405180910390a45b5050565b60006003600084815260200190815260200160002060000160008373ffffffffffffffffffffffffffffffffffffffff1673ffffffffffffffffffffffffffffffffffffffff16815260200190815260200160002060009054906101000a900460ff16905092915050565b600033905090565b600081519050919050565b7f4e487b7100000000000000000000000000000000000000000000000000000000600052604160045260246000fd5b7f4e487b7100000000000000000000000000000000000000000000000000000000600052602260045260246000fd5b600060028204905060018216806200027d57607f821691505b60208210810362000293576200029262000235565b5b50919050565b60008190508160005260206000209050919050565b60006020601f8301049050919050565b600082821b905092915050565b600060088302620002fd7fffffffffffffffffffffffffffffffffffffffffffffffffffffffffffffffff82620002be565b620003098683620002be565b95508019841693508086168417925050509392505050565b6000819050919050565b6000819050919050565b600062000356620003506200034a8462000321565b6200032b565b62000321565b9050919050565b6000819050919050565b620003728362000335565b6200038a62000381826200035d565b848454620002cb565b825550505050565b600090565b620003a162000392565b620003ae81848462000367565b505050565b5b81811015620003d657620003ca60008262000397565b600181019050620003b4565b5050565b601f8211156200042557620003ef8162000299565b620003fa84620002ae565b810160208510156200040a578190505b620004226200041985620002ae565b830182620003b3565b50505b505050565b600082821c905092915050565b60006200044a600019846008026200042a565b1980831691505092915050565b600062000465838362000437565b9150826002028217905092915050565b6200048082620001fb565b67ffffffffffffffff8111156200049c576200049b62000206565b5b620004a8825462000264565b620004b5828285620003da565b600060209050601f831160018114620004ed5760008415620004d8578287015190505b620004e4858262000457565b86555062000554565b601f198416620004fd8662000299565b60005b82811015620005275784890151825560018201915060208501945060208101905062000500565b8683101562000547578489015162000543601f89168262000437565b8355505b6001600288020188555050505b505050505050565b614755806200056c6000396000f3fe608060405234801561001057600080fd5b50600436106101415760003560e01c80636b20c454116100b8578063d2b04fd61161007c578063d2b04fd6146103aa578063d5391393146103c6578063d547741f146103e4578063e985e9c514610400578063f242432a14610430578063f5298aca1461044c57610141565b80636b20c454146102f457806391d1485414610310578063a217fddf14610340578063a22cb4651461035e578063bd85b0391461037a57610141565b80632eb2c2d61161010a5780632eb2c2d6146102225780632f2ff15d1461023e57806336568abe1461025a5780634e1273f4146102765780634f558e79146102a657806356189236146102d657610141565b8062fdd58e1461014657806301ffc9a7146101765780630e89341c146101a65780631f7fdffa146101d6578063248a9ca3146101f2575b600080fd5b610160600480360381019061015b9190612abf565b610468565b60405161016d9190612b0e565b60405180910390f35b610190600480360381019061018b9190612b81565b610530565b60405161019d9190612bc9565b60405180910390f35b6101c060048036038101906101bb9190612be4565b610542565b6040516101cd9190612ca1565b60405180910390f35b6101f060048036038101906101eb9190612ec0565b6105e7565b005b61020c60048036038101906102079190612fb1565b610624565b6040516102199190612fed565b60405180910390f35b61023c60048036038101906102379190613008565b610644565b005b610258600480360381019061025391906130d7565b6106e5565b005b610274600480360381019061026f91906130d7565b610706565b005b610290600480360381019061028b91906131da565b610789565b60405161029d9190613310565b60405180910390f35b6102c060048036038101906102bb9190612be4565b6108a2565b6040516102cd9190612bc9565b60405180910390f35b6102de6108b6565b6040516102eb9190612b0e565b60405180910390f35b61030e60048036038101906103099190613332565b6108c7565b005b61032a600480360381019061032591906130d7565b610964565b6040516103379190612bc9565b60405180910390f35b6103486109cf565b6040516103559190612fed565b60405180910390f35b610378600480360381019061037391906133e9565b6109d6565b005b610394600480360381019061038f9190612be4565b6109ec565b6040516103a19190612b0e565b60405180910390f35b6103c460048036038101906103bf91906134ca565b610a09565b005b6103ce610a69565b6040516103db9190612fed565b60405180910390f35b6103fe60048036038101906103f991906130d7565b610a8d565b005b61041a60048036038101906104159190613569565b610aae565b6040516104279190612bc9565b60405180910390f35b61044a600480360381019061044591906135a9565b610b42565b005b61046660048036038101906104619190613640565b610be3565b005b60008073ffffffffffffffffffffffffffffffffffffffff168373ffffffffffffffffffffffffffffffffffffffff16036104d8576040517f08c379a00000000000000000000000000000000000000000000000000000000081526004016104cf90613705565b60405180910390fd5b60008083815260200190815260200160002060008473ffffffffffffffffffffffffffffffffffffffff1673ffffffffffffffffffffffffffffffffffffffff16815260200190815260200160002054905092915050565b600061053b82610c80565b9050919050565b606060066000838152602001908152602001600020805461056290613754565b80601f016020809104026020016040519081016040528092919081815260200182805461058e90613754565b80156105db5780601f106105b0576101008083540402835291602001916105db565b820191906000526020600020905b8154815290600101906020018083116105be57829003601f168201915b50505050509050919050565b7f9f2df0fed2c77648de5860a4cc508cd0818c85b8b8a1ab4ceeef8d981c8956a661061181610cfa565b61061d85858585610d0e565b5050505050565b600060036000838152602001908152602001600020600101549050919050565b61064c610f3a565b73ffffffffffffffffffffffffffffffffffffffff168573ffffffffffffffffffffffffffffffffffffffff16148061069257506106918561068c610f3a565b610aae565b5b6106d1576040517f08c379a00000000000000000000000000000000000000000000000000000000081526004016106c8906137f7565b60405180910390fd5b6106de8585858585610f42565b5050505050565b6106ee82610624565b6106f781610cfa565b6107018383611263565b505050565b61070e610f3a565b73ffffffffffffffffffffffffffffffffffffffff168173ffffffffffffffffffffffffffffffffffffffff161461077b576040517f08c379a000000000000000000000000000000000000000000000000000000000815260040161077290613889565b60405180910390fd5b6107858282611344565b5050565b606081518351146107cf576040517f08c379a00000000000000000000000000000000000000000000000000000000081526004016107c69061391b565b60405180910390fd5b6000835167ffffffffffffffff8111156107ec576107eb612cc8565b5b60405190808252806020026020018201604052801561081a5781602001602082028036833780820191505090505b50905060005b84518110156108975761086785828151811061083f5761083e61393b565b5b602002602001015185838151811061085a5761085961393b565b5b6020026020010151610468565b82828151811061087a5761087961393b565b5b6020026020010181815250508061089090613999565b9050610820565b508091505092915050565b6000806108ae836109ec565b119050919050565b60006108c26005611426565b905090565b6108cf610f3a565b73ffffffffffffffffffffffffffffffffffffffff168373ffffffffffffffffffffffffffffffffffffffff16148061091557506109148361090f610f3a565b610aae565b5b610954576040517f08c379a000000000000000000000000000000000000000000000000000000000815260040161094b906137f7565b60405180910390fd5b61095f838383611434565b505050565b60006003600084815260200190815260200160002060000160008373ffffffffffffffffffffffffffffffffffffffff1673ffffffffffffffffffffffffffffffffffffffff16815260200190815260200160002060009054906101000a900460ff16905092915050565b6000801b81565b6109e86109e1610f3a565b8383611702565b5050565b600060046000838152602001908152602001600020549050919050565b7f9f2df0fed2c77648de5860a4cc508cd0818c85b8b8a1ab4ceeef8d981c8956a6610a3381610cfa565b6000610a3f6005611426565b9050610a4b600561186e565b610a558185611884565b610a618682878661190b565b505050505050565b7f9f2df0fed2c77648de5860a4cc508cd0818c85b8b8a1ab4ceeef8d981c8956a681565b610a9682610624565b610a9f81610cfa565b610aa98383611344565b505050565b6000600160008473ffffffffffffffffffffffffffffffffffffffff1673ffffffffffffffffffffffffffffffffffffffff16815260200190815260200160002060008373ffffffffffffffffffffffffffffffffffffffff1673ffffffffffffffffffffffffffffffffffffffff16815260200190815260200160002060009054906101000a900460ff16905092915050565b610b4a610f3a565b73ffffffffffffffffffffffffffffffffffffffff168573ffffffffffffffffffffffffffffffffffffffff161480610b905750610b8f85610b8a610f3a565b610aae565b5b610bcf576040517f08c379a0000000000000000000000000000000000000000000000000000000008152600401610bc6906137f7565b60405180910390fd5b610bdc8585858585611abb565b5050505050565b610beb610f3a565b73ffffffffffffffffffffffffffffffffffffffff168373ffffffffffffffffffffffffffffffffffffffff161480610c315750610c3083610c2b610f3a565b610aae565b5b610c70576040517f08c379a0000000000000000000000000000000000000000000000000000000008152600401610c67906137f7565b60405180910390fd5b610c7b838383611d56565b505050565b60007f7965db0b000000000000000000000000000000000000000000000000000000007bffffffffffffffffffffffffffffffffffffffffffffffffffffffff1916827bffffffffffffffffffffffffffffffffffffffffffffffffffffffff19161480610cf35750610cf282611f9c565b5b9050919050565b610d0b81610d06610f3a565b61207e565b50565b600073ffffffffffffffffffffffffffffffffffffffff168473ffffffffffffffffffffffffffffffffffffffff1603610d7d576040517f08c379a0000000000000000000000000000000000000000000000000000000008152600401610d7490613a53565b60405180910390fd5b8151835114610dc1576040517f08c379a0000000000000000000000000000000000000000000000000000000008152600401610db890613ae5565b60405180910390fd5b6000610dcb610f3a565b9050610ddc81600087878787612103565b60005b8451811015610e9557838181518110610dfb57610dfa61393b565b5b6020026020010151600080878481518110610e1957610e1861393b565b5b6020026020010151815260200190815260200160002060008873ffffffffffffffffffffffffffffffffffffffff1673ffffffffffffffffffffffffffffffffffffffff1681526020019081526020016000206000828254610e7b9190613b05565b925050819055508080610e8d90613999565b915050610ddf565b508473ffffffffffffffffffffffffffffffffffffffff16600073ffffffffffffffffffffffffffffffffffffffff168273ffffffffffffffffffffffffffffffffffffffff167f4a39dc06d4c0dbc64b70af90fd698a233a518aa5d07e595d983b8c0526c8f7fb8787604051610f0d929190613b39565b60405180910390a4610f2481600087878787612119565b610f3381600087878787612121565b5050505050565b600033905090565b8151835114610f86576040517f08c379a0000000000000000000000000000000000000000000000000000000008152600401610f7d90613ae5565b60405180910390fd5b600073ffffffffffffffffffffffffffffffffffffffff168473ffffffffffffffffffffffffffffffffffffffff1603610ff5576040517f08c379a0000000000000000000000000000000000000000000000000000000008152600401610fec90613be2565b60405180910390fd5b6000610fff610f3a565b905061100f818787878787612103565b60005b84518110156111c05760008582815181106110305761102f61393b565b5b60200260200101519050600085838151811061104f5761104e61393b565b5b60200260200101519050600080600084815260200190815260200160002060008b73ffffffffffffffffffffffffffffffffffffffff1673ffffffffffffffffffffffffffffffffffffffff168152602001908152602001600020549050818110156110f0576040517f08c379a00000000000000000000000000000000000000000000000000000000081526004016110e790613c74565b60405180910390fd5b81810360008085815260200190815260200160002060008c73ffffffffffffffffffffffffffffffffffffffff1673ffffffffffffffffffffffffffffffffffffffff168152602001908152602001600020819055508160008085815260200190815260200160002060008b73ffffffffffffffffffffffffffffffffffffffff1673ffffffffffffffffffffffffffffffffffffffff16815260200190815260200160002060008282546111a59190613b05565b92505081905550505050806111b990613999565b9050611012565b508473ffffffffffffffffffffffffffffffffffffffff168673ffffffffffffffffffffffffffffffffffffffff168273ffffffffffffffffffffffffffffffffffffffff167f4a39dc06d4c0dbc64b70af90fd698a233a518aa5d07e595d983b8c0526c8f7fb8787604051611237929190613b39565b60405180910390a461124d818787878787612119565b61125b818787878787612121565b505050505050565b61126d8282610964565b6113405760016003600084815260200190815260200160002060000160008373ffffffffffffffffffffffffffffffffffffffff1673ffffffffffffffffffffffffffffffffffffffff16815260200190815260200160002060006101000a81548160ff0219169083151502179055506112e5610f3a565b73ffffffffffffffffffffffffffffffffffffffff168173ffffffffffffffffffffffffffffffffffffffff16837f2f8788117e7eff1d82e926ec794901d17c78024a50270940304540a733656f0d60405160405180910390a45b5050565b61134e8282610964565b156114225760006003600084815260200190815260200160002060000160008373ffffffffffffffffffffffffffffffffffffffff1673ffffffffffffffffffffffffffffffffffffffff16815260200190815260200160002060006101000a81548160ff0219169083151502179055506113c7610f3a565b73ffffffffffffffffffffffffffffffffffffffff168173ffffffffffffffffffffffffffffffffffffffff16837ff6391f5c32d9c69d2a47ea670b442974b53935d1edc7fd64eb21e047a839171b60405160405180910390a45b5050565b600081600001549050919050565b600073ffffffffffffffffffffffffffffffffffffffff168373ffffffffffffffffffffffffffffffffffffffff16036114a3576040517f08c379a000000000000000000000000000000000000000000000000000000000815260040161149a90613d06565b60405180910390fd5b80518251146114e7576040517f08c379a00000000000000000000000000000000000000000000000000000000081526004016114de90613ae5565b60405180910390fd5b60006114f1610f3a565b905061151181856000868660405180602001604052806000815250612103565b60005b835181101561165e5760008482815181106115325761153161393b565b5b6020026020010151905060008483815181106115515761155061393b565b5b60200260200101519050600080600084815260200190815260200160002060008973ffffffffffffffffffffffffffffffffffffffff1673ffffffffffffffffffffffffffffffffffffffff168152602001908152602001600020549050818110156115f2576040517f08c379a00000000000000000000000000000000000000000000000000000000081526004016115e990613d98565b60405180910390fd5b81810360008085815260200190815260200160002060008a73ffffffffffffffffffffffffffffffffffffffff1673ffffffffffffffffffffffffffffffffffffffff16815260200190815260200160002081905550505050808061165690613999565b915050611514565b50600073ffffffffffffffffffffffffffffffffffffffff168473ffffffffffffffffffffffffffffffffffffffff168273ffffffffffffffffffffffffffffffffffffffff167f4a39dc06d4c0dbc64b70af90fd698a233a518aa5d07e595d983b8c0526c8f7fb86866040516116d6929190613b39565b60405180910390a46116fc81856000868660405180602001604052806000815250612119565b50505050565b8173ffffffffffffffffffffffffffffffffffffffff168373ffffffffffffffffffffffffffffffffffffffff1603611770576040517f08c379a000000000000000000000000000000000000000000000000000000000815260040161176790613e2a565b60405180910390fd5b80600160008573ffffffffffffffffffffffffffffffffffffffff1673ffffffffffffffffffffffffffffffffffffffff16815260200190815260200160002060008473ffffffffffffffffffffffffffffffffffffffff1673ffffffffffffffffffffffffffffffffffffffff16815260200190815260200160002060006101000a81548160ff0219169083151502179055508173ffffffffffffffffffffffffffffffffffffffff168373ffffffffffffffffffffffffffffffffffffffff167f17307eab39ab6107e8899845ad3d59bd9653f200f220920489ca2b5937696c31836040516118619190612bc9565b60405180910390a3505050565b6001816000016000828254019250508190555050565b60006006600084815260200190815260200160002080546118a490613754565b9050146118e6576040517f08c379a00000000000000000000000000000000000000000000000000000000081526004016118dd90613e96565b60405180910390fd5b806006600084815260200190815260200160002090816119069190614062565b505050565b600073ffffffffffffffffffffffffffffffffffffffff168473ffffffffffffffffffffffffffffffffffffffff160361197a576040517f08c379a000000000000000000000000000000000000000000000000000000000815260040161197190613a53565b60405180910390fd5b6000611984610f3a565b90506000611991856122f8565b9050600061199e856122f8565b90506119af83600089858589612103565b8460008088815260200190815260200160002060008973ffffffffffffffffffffffffffffffffffffffff1673ffffffffffffffffffffffffffffffffffffffff1681526020019081526020016000206000828254611a0e9190613b05565b925050819055508673ffffffffffffffffffffffffffffffffffffffff16600073ffffffffffffffffffffffffffffffffffffffff168473ffffffffffffffffffffffffffffffffffffffff167fc3d58168c5ae7397731d063d5bbf3d657854427343f4c083240f7aacaa2d0f628989604051611a8c929190614134565b60405180910390a4611aa383600089858589612119565b611ab283600089898989612372565b50505050505050565b600073ffffffffffffffffffffffffffffffffffffffff168473ffffffffffffffffffffffffffffffffffffffff1603611b2a576040517f08c379a0000000000000000000000000000000000000000000000000000000008152600401611b2190613be2565b60405180910390fd5b6000611b34610f3a565b90506000611b41856122f8565b90506000611b4e856122f8565b9050611b5e838989858589612103565b600080600088815260200190815260200160002060008a73ffffffffffffffffffffffffffffffffffffffff1673ffffffffffffffffffffffffffffffffffffffff16815260200190815260200160002054905085811015611bf5576040517f08c379a0000000000000000000000000000000000000000000000000000000008152600401611bec90613c74565b60405180910390fd5b85810360008089815260200190815260200160002060008b73ffffffffffffffffffffffffffffffffffffffff1673ffffffffffffffffffffffffffffffffffffffff168152602001908152602001600020819055508560008089815260200190815260200160002060008a73ffffffffffffffffffffffffffffffffffffffff1673ffffffffffffffffffffffffffffffffffffffff1681526020019081526020016000206000828254611caa9190613b05565b925050819055508773ffffffffffffffffffffffffffffffffffffffff168973ffffffffffffffffffffffffffffffffffffffff168573ffffffffffffffffffffffffffffffffffffffff167fc3d58168c5ae7397731d063d5bbf3d657854427343f4c083240f7aacaa2d0f628a8a604051611d27929190614134565b60405180910390a4611d3d848a8a86868a612119565b611d4b848a8a8a8a8a612372565b505050505050505050565b600073ffffffffffffffffffffffffffffffffffffffff168373ffffffffffffffffffffffffffffffffffffffff1603611dc5576040517f08c379a0000000000000000000000000000000000000000000000000000000008152600401611dbc90613d06565b60405180910390fd5b6000611dcf610f3a565b90506000611ddc846122f8565b90506000611de9846122f8565b9050611e0983876000858560405180602001604052806000815250612103565b600080600087815260200190815260200160002060008873ffffffffffffffffffffffffffffffffffffffff1673ffffffffffffffffffffffffffffffffffffffff16815260200190815260200160002054905084811015611ea0576040517f08c379a0000000000000000000000000000000000000000000000000000000008152600401611e9790613d98565b60405180910390fd5b84810360008088815260200190815260200160002060008973ffffffffffffffffffffffffffffffffffffffff1673ffffffffffffffffffffffffffffffffffffffff16815260200190815260200160002081905550600073ffffffffffffffffffffffffffffffffffffffff168773ffffffffffffffffffffffffffffffffffffffff168573ffffffffffffffffffffffffffffffffffffffff167fc3d58168c5ae7397731d063d5bbf3d657854427343f4c083240f7aacaa2d0f628989604051611f6d929190614134565b60405180910390a4611f9384886000868660405180602001604052806000815250612119565b50505050505050565b60007fd9b67a26000000000000000000000000000000000000000000000000000000007bffffffffffffffffffffffffffffffffffffffffffffffffffffffff1916827bffffffffffffffffffffffffffffffffffffffffffffffffffffffff1916148061206757507f0e89341c000000000000000000000000000000000000000000000000000000007bffffffffffffffffffffffffffffffffffffffffffffffffffffffff1916827bffffffffffffffffffffffffffffffffffffffffffffffffffffffff1916145b80612077575061207682612549565b5b9050919050565b6120888282610964565b6120ff57612095816125b3565b6120a38360001c60206125e0565b6040516020016120b4929190614231565b6040516020818303038152906040526040517f08c379a00000000000000000000000000000000000000000000000000000000081526004016120f69190612ca1565b60405180910390fd5b5050565b61211186868686868661281c565b505050505050565b505050505050565b6121408473ffffffffffffffffffffffffffffffffffffffff166129ec565b156122f0578373ffffffffffffffffffffffffffffffffffffffff1663bc197c8187878686866040518663ffffffff1660e01b81526004016121869594939291906142cf565b6020604051808303816000875af19250505080156121c257506040513d601f19601f820116820180604052508101906121bf919061434c565b60015b612267576121ce614386565b806308c379a00361222a57506121e26143a8565b806121ed575061222c565b806040517f08c379a00000000000000000000000000000000000000000000000000000000081526004016122219190612ca1565b60405180910390fd5b505b6040517f08c379a000000000000000000000000000000000000000000000000000000000815260040161225e906144aa565b60405180910390fd5b63bc197c8160e01b7bffffffffffffffffffffffffffffffffffffffffffffffffffffffff1916817bffffffffffffffffffffffffffffffffffffffffffffffffffffffff1916146122ee576040517f08c379a00000000000000000000000000000000000000000000000000000000081526004016122e59061453c565b60405180910390fd5b505b505050505050565b60606000600167ffffffffffffffff81111561231757612316612cc8565b5b6040519080825280602002602001820160405280156123455781602001602082028036833780820191505090505b509050828160008151811061235d5761235c61393b565b5b60200260200101818152505080915050919050565b6123918473ffffffffffffffffffffffffffffffffffffffff166129ec565b15612541578373ffffffffffffffffffffffffffffffffffffffff1663f23a6e6187878686866040518663ffffffff1660e01b81526004016123d795949392919061455c565b6020604051808303816000875af192505050801561241357506040513d601f19601f82011682018060405250810190612410919061434c565b60015b6124b85761241f614386565b806308c379a00361247b57506124336143a8565b8061243e575061247d565b806040517f08c379a00000000000000000000000000000000000000000000000000000000081526004016124729190612ca1565b60405180910390fd5b505b6040517f08c379a00000000000000000000000000000000000000000000000000000000081526004016124af906144aa565b60405180910390fd5b63f23a6e6160e01b7bffffffffffffffffffffffffffffffffffffffffffffffffffffffff1916817bffffffffffffffffffffffffffffffffffffffffffffffffffffffff19161461253f576040517f08c379a00000000000000000000000000000000000000000000000000000000081526004016125369061453c565b60405180910390fd5b505b505050505050565b60007f01ffc9a7000000000000000000000000000000000000000000000000000000007bffffffffffffffffffffffffffffffffffffffffffffffffffffffff1916827bffffffffffffffffffffffffffffffffffffffffffffffffffffffff1916149050919050565b60606125d98273ffffffffffffffffffffffffffffffffffffffff16601460ff166125e0565b9050919050565b6060600060028360026125f391906145b6565b6125fd9190613b05565b67ffffffffffffffff81111561261657612615612cc8565b5b6040519080825280601f01601f1916602001820160405280156126485781602001600182028036833780820191505090505b5090507f3000000000000000000000000000000000000000000000000000000000000000816000815181106126805761267f61393b565b5b60200101907effffffffffffffffffffffffffffffffffffffffffffffffffffffffffffff1916908160001a9053507f7800000000000000000000000000000000000000000000000000000000000000816001815181106126e4576126e361393b565b5b60200101907effffffffffffffffffffffffffffffffffffffffffffffffffffffffffffff1916908160001a9053506000600184600261272491906145b6565b61272e9190613b05565b90505b60018111156127ce577f3031323334353637383961626364656600000000000000000000000000000000600f8616601081106127705761276f61393b565b5b1a60f81b8282815181106127875761278661393b565b5b60200101907effffffffffffffffffffffffffffffffffffffffffffffffffffffffffffff1916908160001a905350600485901c9450806127c7906145f8565b9050612731565b5060008414612812576040517f08c379a00000000000000000000000000000000000000000000000000000000081526004016128099061466d565b60405180910390fd5b8091505092915050565b61282a868686868686612a0f565b600073ffffffffffffffffffffffffffffffffffffffff168573ffffffffffffffffffffffffffffffffffffffff16036128db5760005b83518110156128d95782818151811061287d5761287c61393b565b5b60200260200101516004600086848151811061289c5761289b61393b565b5b6020026020010151815260200190815260200160002060008282546128c19190613b05565b92505081905550806128d290613999565b9050612861565b505b600073ffffffffffffffffffffffffffffffffffffffff168473ffffffffffffffffffffffffffffffffffffffff16036129e45760005b83518110156129e25760008482815181106129305761292f61393b565b5b60200260200101519050600084838151811061294f5761294e61393b565b5b60200260200101519050600060046000848152602001908152602001600020549050818110156129b4576040517f08c379a00000000000000000000000000000000000000000000000000000000081526004016129ab906146ff565b60405180910390fd5b8181036004600085815260200190815260200160002081905550505050806129db90613999565b9050612912565b505b505050505050565b6000808273ffffffffffffffffffffffffffffffffffffffff163b119050919050565b505050505050565b6000604051905090565b600080fd5b600080fd5b600073ffffffffffffffffffffffffffffffffffffffff82169050919050565b6000612a5682612a2b565b9050919050565b612a6681612a4b565b8114612a7157600080fd5b50565b600081359050612a8381612a5d565b92915050565b6000819050919050565b612a9c81612a89565b8114612aa757600080fd5b50565b600081359050612ab981612a93565b92915050565b60008060408385031215612ad657612ad5612a21565b5b6000612ae485828601612a74565b9250506020612af585828601612aaa565b9150509250929050565b612b0881612a89565b82525050565b6000602082019050612b236000830184612aff565b92915050565b60007fffffffff0000000000000000000000000000000000000000000000000000000082169050919050565b612b5e81612b29565b8114612b6957600080fd5b50565b600081359050612b7b81612b55565b92915050565b600060208284031215612b9757612b96612a21565b5b6000612ba584828501612b6c565b91505092915050565b60008115159050919050565b612bc381612bae565b82525050565b6000602082019050612bde6000830184612bba565b92915050565b600060208284031215612bfa57612bf9612a21565b5b6000612c0884828501612aaa565b91505092915050565b600081519050919050565b600082825260208201905092915050565b60005b83811015612c4b578082015181840152602081019050612c30565b60008484015250505050565b6000601f19601f8301169050919050565b6000612c7382612c11565b612c7d8185612c1c565b9350612c8d818560208601612c2d565b612c9681612c57565b840191505092915050565b60006020820190508181036000830152612cbb8184612c68565b905092915050565b600080fd5b7f4e487b7100000000000000000000000000000000000000000000000000000000600052604160045260246000fd5b612d0082612c57565b810181811067ffffffffffffffff82111715612d1f57612d1e612cc8565b5b80604052505050565b6000612d32612a17565b9050612d3e8282612cf7565b919050565b600067ffffffffffffffff821115612d5e57612d5d612cc8565b5b602082029050602081019050919050565b600080fd5b6000612d87612d8284612d43565b612d28565b90508083825260208201905060208402830185811115612daa57612da9612d6f565b5b835b81811015612dd35780612dbf8882612aaa565b845260208401935050602081019050612dac565b5050509392505050565b600082601f830112612df257612df1612cc3565b5b8135612e02848260208601612d74565b91505092915050565b600080fd5b600067ffffffffffffffff821115612e2b57612e2a612cc8565b5b612e3482612c57565b9050602081019050919050565b82818337600083830152505050565b6000612e63612e5e84612e10565b612d28565b905082815260208101848484011115612e7f57612e7e612e0b565b5b612e8a848285612e41565b509392505050565b600082601f830112612ea757612ea6612cc3565b5b8135612eb7848260208601612e50565b91505092915050565b60008060008060808587031215612eda57612ed9612a21565b5b6000612ee887828801612a74565b945050602085013567ffffffffffffffff811115612f0957612f08612a26565b5b612f1587828801612ddd565b935050604085013567ffffffffffffffff811115612f3657612f35612a26565b5b612f4287828801612ddd565b925050606085013567ffffffffffffffff811115612f6357612f62612a26565b5b612f6f87828801612e92565b91505092959194509250565b6000819050919050565b612f8e81612f7b565b8114612f9957600080fd5b50565b600081359050612fab81612f85565b92915050565b600060208284031215612fc757612fc6612a21565b5b6000612fd584828501612f9c565b91505092915050565b612fe781612f7b565b82525050565b60006020820190506130026000830184612fde565b92915050565b600080600080600060a0868803121561302457613023612a21565b5b600061303288828901612a74565b955050602061304388828901612a74565b945050604086013567ffffffffffffffff81111561306457613063612a26565b5b61307088828901612ddd565b935050606086013567ffffffffffffffff81111561309157613090612a26565b5b61309d88828901612ddd565b925050608086013567ffffffffffffffff8111156130be576130bd612a26565b5b6130ca88828901612e92565b9150509295509295909350565b600080604083850312156130ee576130ed612a21565b5b60006130fc85828601612f9c565b925050602061310d85828601612a74565b9150509250929050565b600067ffffffffffffffff82111561313257613131612cc8565b5b602082029050602081019050919050565b600061315661315184613117565b612d28565b9050808382526020820190506020840283018581111561317957613178612d6f565b5b835b818110156131a2578061318e8882612a74565b84526020840193505060208101905061317b565b5050509392505050565b600082601f8301126131c1576131c0612cc3565b5b81356131d1848260208601613143565b91505092915050565b600080604083850312156131f1576131f0612a21565b5b600083013567ffffffffffffffff81111561320f5761320e612a26565b5b61321b858286016131ac565b925050602083013567ffffffffffffffff81111561323c5761323b612a26565b5b61324885828601612ddd565b9150509250929050565b600081519050919050565b600082825260208201905092915050565b6000819050602082019050919050565b61328781612a89565b82525050565b6000613299838361327e565b60208301905092915050565b6000602082019050919050565b60006132bd82613252565b6132c7818561325d565b93506132d28361326e565b8060005b838110156133035781516132ea888261328d565b97506132f5836132a5565b9250506001810190506132d6565b5085935050505092915050565b6000602082019050818103600083015261332a81846132b2565b905092915050565b60008060006060848603121561334b5761334a612a21565b5b600061335986828701612a74565b935050602084013567ffffffffffffffff81111561337a57613379612a26565b5b61338686828701612ddd565b925050604084013567ffffffffffffffff8111156133a7576133a6612a26565b5b6133b386828701612ddd565b9150509250925092565b6133c681612bae565b81146133d157600080fd5b50565b6000813590506133e3816133bd565b92915050565b60008060408385031215613400576133ff612a21565b5b600061340e85828601612a74565b925050602061341f858286016133d4565b9150509250929050565b600067ffffffffffffffff82111561344457613443612cc8565b5b61344d82612c57565b9050602081019050919050565b600061346d61346884613429565b612d28565b90508281526020810184848401111561348957613488612e0b565b5b613494848285612e41565b509392505050565b600082601f8301126134b1576134b0612cc3565b5b81356134c184826020860161345a565b91505092915050565b600080600080608085870312156134e4576134e3612a21565b5b60006134f287828801612a74565b945050602061350387828801612aaa565b935050604085013567ffffffffffffffff81111561352457613523612a26565b5b6135308782880161349c565b925050606085013567ffffffffffffffff81111561355157613550612a26565b5b61355d87828801612e92565b91505092959194509250565b600080604083850312156135805761357f612a21565b5b600061358e85828601612a74565b925050602061359f85828601612a74565b9150509250929050565b600080600080600060a086880312156135c5576135c4612a21565b5b60006135d388828901612a74565b95505060206135e488828901612a74565b94505060406135f588828901612aaa565b935050606061360688828901612aaa565b925050608086013567ffffffffffffffff81111561362757613626612a26565b5b61363388828901612e92565b9150509295509295909350565b60008060006060848603121561365957613658612a21565b5b600061366786828701612a74565b935050602061367886828701612aaa565b925050604061368986828701612aaa565b9150509250925092565b7f455243313135353a2061646472657373207a65726f206973206e6f742061207660008201527f616c6964206f776e657200000000000000000000000000000000000000000000602082015250565b60006136ef602a83612c1c565b91506136fa82613693565b604082019050919050565b6000602082019050818103600083015261371e816136e2565b9050919050565b7f4e487b7100000000000000000000000000000000000000000000000000000000600052602260045260246000fd5b6000600282049050600182168061376c57607f821691505b60208210810361377f5761377e613725565b5b50919050565b7f455243313135353a2063616c6c6572206973206e6f7420746f6b656e206f776e60008201527f6572206f7220617070726f766564000000000000000000000000000000000000602082015250565b60006137e1602e83612c1c565b91506137ec82613785565b604082019050919050565b60006020820190508181036000830152613810816137d4565b9050919050565b7f416363657373436f6e74726f6c3a2063616e206f6e6c792072656e6f756e636560008201527f20726f6c657320666f722073656c660000000000000000000000000000000000602082015250565b6000613873602f83612c1c565b915061387e82613817565b604082019050919050565b600060208201905081810360008301526138a281613866565b9050919050565b7f455243313135353a206163636f756e747320616e6420696473206c656e67746860008201527f206d69736d617463680000000000000000000000000000000000000000000000602082015250565b6000613905602983612c1c565b9150613910826138a9565b604082019050919050565b60006020820190508181036000830152613934816138f8565b9050919050565b7f4e487b7100000000000000000000000000000000000000000000000000000000600052603260045260246000fd5b7f4e487b7100000000000000000000000000000000000000000000000000000000600052601160045260246000fd5b60006139a482612a89565b91507fffffffffffffffffffffffffffffffffffffffffffffffffffffffffffffffff82036139d6576139d561396a565b5b600182019050919050565b7f455243313135353a206d696e7420746f20746865207a65726f2061646472657360008201527f7300000000000000000000000000000000000000000000000000000000000000602082015250565b6000613a3d602183612c1c565b9150613a48826139e1565b604082019050919050565b60006020820190508181036000830152613a6c81613a30565b9050919050565b7f455243313135353a2069647320616e6420616d6f756e7473206c656e6774682060008201527f6d69736d61746368000000000000000000000000000000000000000000000000602082015250565b6000613acf602883612c1c565b9150613ada82613a73565b604082019050919050565b60006020820190508181036000830152613afe81613ac2565b9050919050565b6000613b1082612a89565b9150613b1b83612a89565b9250828201905080821115613b3357613b3261396a565b5b92915050565b60006040820190508181036000830152613b5381856132b2565b90508181036020830152613b6781846132b2565b90509392505050565b7f455243313135353a207472616e7366657220746f20746865207a65726f20616460008201527f6472657373000000000000000000000000000000000000000000000000000000602082015250565b6000613bcc602583612c1c565b9150613bd782613b70565b604082019050919050565b60006020820190508181036000830152613bfb81613bbf565b9050919050565b7f455243313135353a20696e73756666696369656e742062616c616e636520666f60008201527f72207472616e7366657200000000000000000000000000000000000000000000602082015250565b6000613c5e602a83612c1c565b9150613c6982613c02565b604082019050919050565b60006020820190508181036000830152613c8d81613c51565b9050919050565b7f455243313135353a206275726e2066726f6d20746865207a65726f206164647260008201527f6573730000000000000000000000000000000000000000000000000000000000602082015250565b6000613cf0602383612c1c565b9150613cfb82613c94565b604082019050919050565b60006020820190508181036000830152613d1f81613ce3565b9050919050565b7f455243313135353a206275726e20616d6f756e7420657863656564732062616c60008201527f616e636500000000000000000000000000000000000000000000000000000000602082015250565b6000613d82602483612c1c565b9150613d8d82613d26565b604082019050919050565b60006020820190508181036000830152613db181613d75565b9050919050565b7f455243313135353a2073657474696e6720617070726f76616c2073746174757360008201527f20666f722073656c660000000000000000000000000000000000000000000000602082015250565b6000613e14602983612c1c565b9150613e1f82613db8565b604082019050919050565b60006020820190508181036000830152613e4381613e07565b9050919050565b7f43616e6e6f742073657420757269207477696365000000000000000000000000600082015250565b6000613e80601483612c1c565b9150613e8b82613e4a565b602082019050919050565b60006020820190508181036000830152613eaf81613e73565b9050919050565b60008190508160005260206000209050919050565b60006020601f8301049050919050565b600082821b905092915050565b600060088302613f187fffffffffffffffffffffffffffffffffffffffffffffffffffffffffffffffff82613edb565b613f228683613edb565b95508019841693508086168417925050509392505050565b6000819050919050565b6000613f5f613f5a613f5584612a89565b613f3a565b612a89565b9050919050565b6000819050919050565b613f7983613f44565b613f8d613f8582613f66565b848454613ee8565b825550505050565b600090565b613fa2613f95565b613fad818484613f70565b505050565b5b81811015613fd157613fc6600082613f9a565b600181019050613fb3565b5050565b601f82111561401657613fe781613eb6565b613ff084613ecb565b81016020851015613fff578190505b61401361400b85613ecb565b830182613fb2565b50505b505050565b600082821c905092915050565b60006140396000198460080261401b565b1980831691505092915050565b60006140528383614028565b9150826002028217905092915050565b61406b82612c11565b67ffffffffffffffff81111561408457614083612cc8565b5b61408e8254613754565b614099828285613fd5565b600060209050601f8311600181146140cc57600084156140ba578287015190505b6140c48582614046565b86555061412c565b601f1984166140da86613eb6565b60005b82811015614102578489015182556001820191506020850194506020810190506140dd565b8683101561411f578489015161411b601f891682614028565b8355505b6001600288020188555050505b505050505050565b60006040820190506141496000830185612aff565b6141566020830184612aff565b9392505050565b600081905092915050565b7f416363657373436f6e74726f6c3a206163636f756e7420000000000000000000600082015250565b600061419e60178361415d565b91506141a982614168565b601782019050919050565b60006141bf82612c11565b6141c9818561415d565b93506141d9818560208601612c2d565b80840191505092915050565b7f206973206d697373696e6720726f6c6520000000000000000000000000000000600082015250565b600061421b60118361415d565b9150614226826141e5565b601182019050919050565b600061423c82614191565b915061424882856141b4565b91506142538261420e565b915061425f82846141b4565b91508190509392505050565b61427481612a4b565b82525050565b600081519050919050565b600082825260208201905092915050565b60006142a18261427a565b6142ab8185614285565b93506142bb818560208601612c2d565b6142c481612c57565b840191505092915050565b600060a0820190506142e4600083018861426b565b6142f1602083018761426b565b818103604083015261430381866132b2565b9050818103606083015261431781856132b2565b9050818103608083015261432b8184614296565b90509695505050505050565b60008151905061434681612b55565b92915050565b60006020828403121561436257614361612a21565b5b600061437084828501614337565b91505092915050565b60008160e01c9050919050565b600060033d11156143a55760046000803e6143a2600051614379565b90505b90565b600060443d10614435576143ba612a17565b60043d036004823e80513d602482011167ffffffffffffffff821117156143e2575050614435565b808201805167ffffffffffffffff8111156144005750505050614435565b80602083010160043d03850181111561441d575050505050614435565b61442c82602001850186612cf7565b82955050505050505b90565b7f455243313135353a207472616e7366657220746f206e6f6e2d4552433131353560008201527f526563656976657220696d706c656d656e746572000000000000000000000000602082015250565b6000614494603483612c1c565b915061449f82614438565b604082019050919050565b600060208201905081810360008301526144c381614487565b9050919050565b7f455243313135353a204552433131353552656365697665722072656a6563746560008201527f6420746f6b656e73000000000000000000000000000000000000000000000000602082015250565b6000614526602883612c1c565b9150614531826144ca565b604082019050919050565b6000602082019050818103600083015261455581614519565b9050919050565b600060a082019050614571600083018861426b565b61457e602083018761426b565b61458b6040830186612aff565b6145986060830185612aff565b81810360808301526145aa8184614296565b90509695505050505050565b60006145c182612a89565b91506145cc83612a89565b92508282026145da81612a89565b915082820484148315176145f1576145f061396a565b5b5092915050565b600061460382612a89565b9150600082036146165761461561396a565b5b600182039050919050565b7f537472696e67733a20686578206c656e67746820696e73756666696369656e74600082015250565b6000614657602083612c1c565b915061466282614621565b602082019050919050565b600060208201905081810360008301526146868161464a565b9050919050565b7f455243313135353a206275726e20616d6f756e74206578636565647320746f7460008201527f616c537570706c79000000000000000000000000000000000000000000000000602082015250565b60006146e9602883612c1c565b91506146f48261468d565b604082019050919050565b60006020820190508181036000830152614718816146dc565b905091905056fea26469706673582212209f72c03fa5289903ffac07aa9d63d3e4356db484010d20044a63cdd6d05e9e1864736f6c63430008130033",
  "immutableReferences": {},
  "source": "// SPDX-License-Identifier: MIT\npragma solidity ^0.8.19;\n\nimport \"@openzeppelin/contracts/token/ERC1155/ERC1155.sol\";\nimport \"@openzeppelin/contracts/access/AccessControl.sol\";\nimport \"@openzeppelin/contracts/token/ERC1155/extensions/ERC1155Burnable.sol\";\nimport \"@openzeppelin/contracts/token/ERC1155/extensions/ERC1155Supply.sol\";\nimport \"@openzeppelin/contracts/utils/Counters.sol\";\n\ncontract Space3 is ERC1155, AccessControl, ERC1155Burnable, ERC1155Supply {\n    using Counters for Counters.Counter;\n\n    Counters.Counter private _tokenIdCounter;\n\n    mapping(uint256 => string) private _uris;\n\n    bytes32 public constant MINTER_ROLE = keccak256(\"MINTER_ROLE\");\n\n    constructor() ERC1155(\"\") {\n        _grantRole(DEFAULT_ADMIN_ROLE, msg.sender);\n        _grantRole(MINTER_ROLE, msg.sender);\n    }\n\n    function mint(\n        address to,\n        uint256 amount,\n        string memory url,\n        bytes memory data\n    ) external onlyRole(MINTER_ROLE) {\n        uint256 tokenId = _tokenIdCounter.current();\n        _tokenIdCounter.increment();\n\n        _setTokenUri(tokenId, url);\n\n        _mint(to, tokenId, amount, data);\n    }\n\n    function mintBatch(\n        address to,\n        uint256[] memory ids,\n        uint256[] memory amounts,\n        bytes memory data\n    ) external onlyRole(MINTER_ROLE) {\n        _mintBatch(to, ids, amounts, data);\n    }\n\n    function getCurrentTokenId() public view returns (uint256) {\n        return _tokenIdCounter.current();\n    }\n\n    function uri(uint256 tokenId) public view override returns (string memory) {\n        return (_uris[tokenId]);\n    }\n\n    function _setTokenUri(uint256 tokenId, string memory url) private {\n        require(bytes(_uris[tokenId]).length == 0, \"Cannot set uri twice\");\n        _uris[tokenId] = url;\n    }\n\n    // The following functions are overrides required by Solidity.\n    function _beforeTokenTransfer(\n        address operator,\n        address from,\n        address to,\n        uint256[] memory ids,\n        uint256[] memory amounts,\n        bytes memory data\n    ) internal override(ERC1155, ERC1155Supply) {\n        super._beforeTokenTransfer(operator, from, to, ids, amounts, data);\n    }\n\n    function supportsInterface(\n        bytes4 interfaceId\n    ) public view override(ERC1155, AccessControl) returns (bool) {\n        return super.supportsInterface(interfaceId);\n    }\n}\n",
  "sourcePath": "/Users/lucas/Desktop/A8/Smartcontract/Space3-NFT1155/contracts/A8-NFT-1155.sol",
  "compiler": {
    "name": "solc",
    "version": "0.8.19+commit.7dd6d404.Emscripten.clang"
  },
  "schemaVersion": "3.4.11",
  "updatedAt": "2023-03-22T07:47:42.617Z",
  "devdoc": {
    "events": {
      "ApprovalForAll(address,address,bool)": {
        "details": "Emitted when `account` grants or revokes permission to `operator` to transfer their tokens, according to `approved`."
      },
      "RoleAdminChanged(bytes32,bytes32,bytes32)": {
        "details": "Emitted when `newAdminRole` is set as ``role``'s admin role, replacing `previousAdminRole` `DEFAULT_ADMIN_ROLE` is the starting admin for all roles, despite {RoleAdminChanged} not being emitted signaling this. _Available since v3.1._"
      },
      "RoleGranted(bytes32,address,address)": {
        "details": "Emitted when `account` is granted `role`. `sender` is the account that originated the contract call, an admin role bearer except when using {AccessControl-_setupRole}."
      },
      "RoleRevoked(bytes32,address,address)": {
        "details": "Emitted when `account` is revoked `role`. `sender` is the account that originated the contract call:   - if using `revokeRole`, it is the admin role bearer   - if using `renounceRole`, it is the role bearer (i.e. `account`)"
      },
      "TransferBatch(address,address,address,uint256[],uint256[])": {
        "details": "Equivalent to multiple {TransferSingle} events, where `operator`, `from` and `to` are the same for all transfers."
      },
      "TransferSingle(address,address,address,uint256,uint256)": {
        "details": "Emitted when `value` tokens of token type `id` are transferred from `from` to `to` by `operator`."
      },
      "URI(string,uint256)": {
        "details": "Emitted when the URI for token type `id` changes to `value`, if it is a non-programmatic URI. If an {URI} event was emitted for `id`, the standard https://eips.ethereum.org/EIPS/eip-1155#metadata-extensions[guarantees] that `value` will equal the value returned by {IERC1155MetadataURI-uri}."
      }
    },
    "kind": "dev",
    "methods": {
      "balanceOf(address,uint256)": {
        "details": "See {IERC1155-balanceOf}. Requirements: - `account` cannot be the zero address."
      },
      "balanceOfBatch(address[],uint256[])": {
        "details": "See {IERC1155-balanceOfBatch}. Requirements: - `accounts` and `ids` must have the same length."
      },
      "exists(uint256)": {
        "details": "Indicates whether any token exist with a given id, or not."
      },
      "getRoleAdmin(bytes32)": {
        "details": "Returns the admin role that controls `role`. See {grantRole} and {revokeRole}. To change a role's admin, use {_setRoleAdmin}."
      },
      "grantRole(bytes32,address)": {
        "details": "Grants `role` to `account`. If `account` had not been already granted `role`, emits a {RoleGranted} event. Requirements: - the caller must have ``role``'s admin role. May emit a {RoleGranted} event."
      },
      "hasRole(bytes32,address)": {
        "details": "Returns `true` if `account` has been granted `role`."
      },
      "isApprovedForAll(address,address)": {
        "details": "See {IERC1155-isApprovedForAll}."
      },
      "renounceRole(bytes32,address)": {
        "details": "Revokes `role` from the calling account. Roles are often managed via {grantRole} and {revokeRole}: this function's purpose is to provide a mechanism for accounts to lose their privileges if they are compromised (such as when a trusted device is misplaced). If the calling account had been revoked `role`, emits a {RoleRevoked} event. Requirements: - the caller must be `account`. May emit a {RoleRevoked} event."
      },
      "revokeRole(bytes32,address)": {
        "details": "Revokes `role` from `account`. If `account` had been granted `role`, emits a {RoleRevoked} event. Requirements: - the caller must have ``role``'s admin role. May emit a {RoleRevoked} event."
      },
      "safeBatchTransferFrom(address,address,uint256[],uint256[],bytes)": {
        "details": "See {IERC1155-safeBatchTransferFrom}."
      },
      "safeTransferFrom(address,address,uint256,uint256,bytes)": {
        "details": "See {IERC1155-safeTransferFrom}."
      },
      "setApprovalForAll(address,bool)": {
        "details": "See {IERC1155-setApprovalForAll}."
      },
      "totalSupply(uint256)": {
        "details": "Total amount of tokens in with a given id."
      }
    },
    "version": 1
  },
  "userdoc": {
    "kind": "user",
    "methods": {},
    "version": 1
  }
}