{
  "address": "0x266FD7E6eb1594538E2ce2a2E31EDc48ea5277b0",
  "abi": [
    {
      "inputs": [
        {
          "internalType": "address",
          "name": "admin",
          "type": "address"
        }
      ],
      "stateMutability": "nonpayable",
      "type": "constructor"
    },
    {
      "inputs": [],
      "name": "AccessControlBadConfirmation",
      "type": "error"
    },
    {
      "inputs": [
        {
          "internalType": "address",
          "name": "account",
          "type": "address"
        },
        {
          "internalType": "bytes32",
          "name": "neededRole",
          "type": "bytes32"
        }
      ],
      "name": "AccessControlUnauthorizedAccount",
      "type": "error"
    },
    {
      "inputs": [
        {
          "internalType": "address",
          "name": "target",
          "type": "address"
        }
      ],
      "name": "AddressEmptyCode",
      "type": "error"
    },
    {
      "inputs": [
        {
          "internalType": "address",
          "name": "account",
          "type": "address"
        }
      ],
      "name": "AddressInsufficientBalance",
      "type": "error"
    },
    {
      "inputs": [
        {
          "internalType": "uint256",
          "name": "id",
          "type": "uint256"
        }
      ],
      "name": "AlreadyClaimed",
      "type": "error"
    },
    {
      "inputs": [],
      "name": "FailedInnerCall",
      "type": "error"
    },
    {
      "inputs": [
        {
          "internalType": "address",
          "name": "token",
          "type": "address"
        }
      ],
      "name": "SafeERC20FailedOperation",
      "type": "error"
    },
    {
      "inputs": [],
      "name": "UnsupportedTokenType",
      "type": "error"
    },
    {
      "anonymous": false,
      "inputs": [
        {
          "indexed": false,
          "internalType": "uint256",
          "name": "id",
          "type": "uint256"
        },
        {
          "indexed": true,
          "internalType": "address",
          "name": "owner",
          "type": "address"
        }
      ],
      "name": "Claimed",
      "type": "event"
    },
    {
      "anonymous": false,
      "inputs": [
        {
          "indexed": false,
          "internalType": "address",
          "name": "operator",
          "type": "address"
        },
        {
          "indexed": false,
          "internalType": "address",
          "name": "from",
          "type": "address"
        },
        {
          "indexed": true,
          "internalType": "uint256[]",
          "name": "ids",
          "type": "uint256[]"
        },
        {
          "indexed": true,
          "internalType": "uint256[]",
          "name": "values",
          "type": "uint256[]"
        },
        {
          "indexed": true,
          "internalType": "bytes",
          "name": "data",
          "type": "bytes"
        }
      ],
      "name": "ERC1155BatchReceived",
      "type": "event"
    },
    {
      "anonymous": false,
      "inputs": [
        {
          "indexed": false,
          "internalType": "address",
          "name": "operator",
          "type": "address"
        },
        {
          "indexed": false,
          "internalType": "address",
          "name": "from",
          "type": "address"
        },
        {
          "indexed": false,
          "internalType": "uint256",
          "name": "id",
          "type": "uint256"
        },
        {
          "indexed": false,
          "internalType": "uint256",
          "name": "value",
          "type": "uint256"
        },
        {
          "indexed": true,
          "internalType": "bytes",
          "name": "data",
          "type": "bytes"
        }
      ],
      "name": "ERC1155Received",
      "type": "event"
    },
    {
      "anonymous": false,
      "inputs": [
        {
          "indexed": false,
          "internalType": "address",
          "name": "operator",
          "type": "address"
        },
        {
          "indexed": false,
          "internalType": "address",
          "name": "from",
          "type": "address"
        },
        {
          "indexed": false,
          "internalType": "uint256",
          "name": "tokenId",
          "type": "uint256"
        },
        {
          "indexed": true,
          "internalType": "bytes",
          "name": "data",
          "type": "bytes"
        }
      ],
      "name": "ERC721Received",
      "type": "event"
    },
    {
      "anonymous": false,
      "inputs": [
        {
          "indexed": false,
          "internalType": "uint256",
          "name": "id",
          "type": "uint256"
        },
        {
          "indexed": true,
          "internalType": "address",
          "name": "owner",
          "type": "address"
        }
      ],
      "name": "OwnershipGranted",
      "type": "event"
    },
    {
      "anonymous": false,
      "inputs": [
        {
          "indexed": true,
          "internalType": "bytes32",
          "name": "role",
          "type": "bytes32"
        },
        {
          "indexed": true,
          "internalType": "bytes32",
          "name": "previousAdminRole",
          "type": "bytes32"
        },
        {
          "indexed": true,
          "internalType": "bytes32",
          "name": "newAdminRole",
          "type": "bytes32"
        }
      ],
      "name": "RoleAdminChanged",
      "type": "event"
    },
    {
      "anonymous": false,
      "inputs": [
        {
          "indexed": true,
          "internalType": "bytes32",
          "name": "role",
          "type": "bytes32"
        },
        {
          "indexed": true,
          "internalType": "address",
          "name": "account",
          "type": "address"
        },
        {
          "indexed": true,
          "internalType": "address",
          "name": "sender",
          "type": "address"
        }
      ],
      "name": "RoleGranted",
      "type": "event"
    },
    {
      "anonymous": false,
      "inputs": [
        {
          "indexed": true,
          "internalType": "bytes32",
          "name": "role",
          "type": "bytes32"
        },
        {
          "indexed": true,
          "internalType": "address",
          "name": "account",
          "type": "address"
        },
        {
          "indexed": true,
          "internalType": "address",
          "name": "sender",
          "type": "address"
        }
      ],
      "name": "RoleRevoked",
      "type": "event"
    },
    {
      "anonymous": false,
      "inputs": [
        {
          "indexed": true,
          "internalType": "address",
          "name": "depositor",
          "type": "address"
        },
        {
          "indexed": true,
          "internalType": "address",
          "name": "token",
          "type": "address"
        },
        {
          "indexed": false,
          "internalType": "uint256",
          "name": "tokenId",
          "type": "uint256"
        },
        {
          "indexed": false,
          "internalType": "uint256",
          "name": "amount",
          "type": "uint256"
        }
      ],
      "name": "TokenDeposited",
      "type": "event"
    },
    {
      "inputs": [],
      "name": "DEFAULT_ADMIN_ROLE",
      "outputs": [
        {
          "internalType": "bytes32",
          "name": "",
          "type": "bytes32"
        }
      ],
      "stateMutability": "view",
      "type": "function"
    },
    {
      "inputs": [
        {
          "internalType": "uint256",
          "name": "id",
          "type": "uint256"
        },
        {
          "internalType": "address",
          "name": "to",
          "type": "address"
        }
      ],
      "name": "claim",
      "outputs": [],
      "stateMutability": "nonpayable",
      "type": "function"
    },
    {
      "inputs": [],
      "name": "deposit",
      "outputs": [],
      "stateMutability": "payable",
      "type": "function"
    },
    {
      "inputs": [
        {
          "internalType": "address",
          "name": "_token",
          "type": "address"
        },
        {
          "internalType": "uint256",
          "name": "_tokenId",
          "type": "uint256"
        },
        {
          "internalType": "uint256",
          "name": "_amount",
          "type": "uint256"
        }
      ],
      "name": "depositERC1155",
      "outputs": [],
      "stateMutability": "nonpayable",
      "type": "function"
    },
    {
      "inputs": [
        {
          "internalType": "address",
          "name": "_token",
          "type": "address"
        },
        {
          "internalType": "uint256",
          "name": "_amount",
          "type": "uint256"
        }
      ],
      "name": "depositERC20",
      "outputs": [],
      "stateMutability": "nonpayable",
      "type": "function"
    },
    {
      "inputs": [
        {
          "internalType": "address",
          "name": "_token",
          "type": "address"
        },
        {
          "internalType": "uint256",
          "name": "_tokenId",
          "type": "uint256"
        }
      ],
      "name": "depositERC721",
      "outputs": [],
      "stateMutability": "nonpayable",
      "type": "function"
    },
    {
      "inputs": [
        {
          "internalType": "uint256",
          "name": "id",
          "type": "uint256"
        }
      ],
      "name": "getRewardOwner",
      "outputs": [
        {
          "internalType": "address",
          "name": "",
          "type": "address"
        }
      ],
      "stateMutability": "view",
      "type": "function"
    },
    {
      "inputs": [
        {
          "internalType": "bytes32",
          "name": "role",
          "type": "bytes32"
        }
      ],
      "name": "getRoleAdmin",
      "outputs": [
        {
          "internalType": "bytes32",
          "name": "",
          "type": "bytes32"
        }
      ],
      "stateMutability": "view",
      "type": "function"
    },
    {
      "inputs": [
        {
          "internalType": "bytes32",
          "name": "role",
          "type": "bytes32"
        },
        {
          "internalType": "address",
          "name": "account",
          "type": "address"
        }
      ],
      "name": "grantRole",
      "outputs": [],
      "stateMutability": "nonpayable",
      "type": "function"
    },
    {
      "inputs": [
        {
          "internalType": "bytes32",
          "name": "role",
          "type": "bytes32"
        },
        {
          "internalType": "address",
          "name": "account",
          "type": "address"
        }
      ],
      "name": "hasRole",
      "outputs": [
        {
          "internalType": "bool",
          "name": "",
          "type": "bool"
        }
      ],
      "stateMutability": "view",
      "type": "function"
    },
    {
      "inputs": [
        {
          "internalType": "uint256",
          "name": "id",
          "type": "uint256"
        }
      ],
      "name": "isClaimed",
      "outputs": [
        {
          "internalType": "bool",
          "name": "",
          "type": "bool"
        }
      ],
      "stateMutability": "view",
      "type": "function"
    },
    {
      "inputs": [
        {
          "internalType": "address",
          "name": "operator",
          "type": "address"
        },
        {
          "internalType": "address",
          "name": "from",
          "type": "address"
        },
        {
          "internalType": "uint256[]",
          "name": "ids",
          "type": "uint256[]"
        },
        {
          "internalType": "uint256[]",
          "name": "values",
          "type": "uint256[]"
        },
        {
          "internalType": "bytes",
          "name": "data",
          "type": "bytes"
        }
      ],
      "name": "onERC1155BatchReceived",
      "outputs": [
        {
          "internalType": "bytes4",
          "name": "",
          "type": "bytes4"
        }
      ],
      "stateMutability": "nonpayable",
      "type": "function"
    },
    {
      "inputs": [
        {
          "internalType": "address",
          "name": "operator",
          "type": "address"
        },
        {
          "internalType": "address",
          "name": "from",
          "type": "address"
        },
        {
          "internalType": "uint256",
          "name": "id",
          "type": "uint256"
        },
        {
          "internalType": "uint256",
          "name": "value",
          "type": "uint256"
        },
        {
          "internalType": "bytes",
          "name": "data",
          "type": "bytes"
        }
      ],
      "name": "onERC1155Received",
      "outputs": [
        {
          "internalType": "bytes4",
          "name": "",
          "type": "bytes4"
        }
      ],
      "stateMutability": "nonpayable",
      "type": "function"
    },
    {
      "inputs": [
        {
          "internalType": "address",
          "name": "operator",
          "type": "address"
        },
        {
          "internalType": "address",
          "name": "from",
          "type": "address"
        },
        {
          "internalType": "uint256",
          "name": "tokenId",
          "type": "uint256"
        },
        {
          "internalType": "bytes",
          "name": "data",
          "type": "bytes"
        }
      ],
      "name": "onERC721Received",
      "outputs": [
        {
          "internalType": "bytes4",
          "name": "",
          "type": "bytes4"
        }
      ],
      "stateMutability": "nonpayable",
      "type": "function"
    },
    {
      "inputs": [
        {
          "internalType": "bytes32",
          "name": "role",
          "type": "bytes32"
        },
        {
          "internalType": "address",
          "name": "callerConfirmation",
          "type": "address"
        }
      ],
      "name": "renounceRole",
      "outputs": [],
      "stateMutability": "nonpayable",
      "type": "function"
    },
    {
      "inputs": [
        {
          "internalType": "bytes32",
          "name": "role",
          "type": "bytes32"
        },
        {
          "internalType": "address",
          "name": "account",
          "type": "address"
        }
      ],
      "name": "revokeRole",
      "outputs": [],
      "stateMutability": "nonpayable",
      "type": "function"
    },
    {
      "inputs": [
        {
          "internalType": "address",
          "name": "owner",
          "type": "address"
        },
        {
          "components": [
            {
              "internalType": "uint256",
              "name": "amount",
              "type": "uint256"
            },
            {
              "internalType": "uint256",
              "name": "tokenId",
              "type": "uint256"
            },
            {
              "internalType": "address",
              "name": "tokenAddr",
              "type": "address"
            },
            {
              "internalType": "bytes32",
              "name": "tokenType",
              "type": "bytes32"
            }
          ],
          "internalType": "struct GachaStation.Reward",
          "name": "reward",
          "type": "tuple"
        }
      ],
      "name": "setRewardOwner",
      "outputs": [
        {
          "internalType": "uint256",
          "name": "",
          "type": "uint256"
        }
      ],
      "stateMutability": "nonpayable",
      "type": "function"
    },
    {
      "inputs": [
        {
          "internalType": "bytes4",
          "name": "interfaceId",
          "type": "bytes4"
        }
      ],
      "name": "supportsInterface",
      "outputs": [
        {
          "internalType": "bool",
          "name": "",
          "type": "bool"
        }
      ],
      "stateMutability": "view",
      "type": "function"
    }
  ],
  "transactionHash": "0xd09073fcaf2c5a957a9ca6b41c514fa7d13305be13103038f063262208b89bb4",
  "args": [
    "0x865260E7825C13fFB62E8127b1015Da670205502"
  ],
  "numDeployments": 1,
  "solcInputHash": "dd11f6319041a51d35c4774d70b49c8d",
  "bytecode": "0x60806040523480156200001157600080fd5b50604051620018b0380380620018b08339810160408190526200003491620000f8565b6200004160008262000049565b50506200012a565b6000828152602081815260408083206001600160a01b038516845290915281205460ff16620000ee576000838152602081815260408083206001600160a01b03861684529091529020805460ff19166001179055620000a53390565b6001600160a01b0316826001600160a01b0316847f2f8788117e7eff1d82e926ec794901d17c78024a50270940304540a733656f0d60405160405180910390a4506001620000f2565b5060005b92915050565b6000602082840312156200010b57600080fd5b81516001600160a01b03811681146200012357600080fd5b9392505050565b611776806200013a6000396000f3fe6080604052600436106101095760003560e01c80639e34070f11610095578063d0e30db011610064578063d0e30db01461031f578063d29a4bf614610327578063d547741f14610347578063ddd5e1b214610367578063f23a6e611461038757600080fd5b80639e34070f146102aa5780639e3c1b61146102ca578063a217fddf146102ea578063bc197c81146102ff57600080fd5b80632f2ff15d116100dc5780632f2ff15d146101da57806336568abe146101fc57806364d348061461021c57806391d148541461026a57806397feb9261461028a57600080fd5b806301ffc9a71461010e578063150b7a0214610143578063248a9ca31461017c5780632d2135a5146101ba575b600080fd5b34801561011a57600080fd5b5061012e6101293660046111bf565b6103a7565b60405190151581526020015b60405180910390f35b34801561014f57600080fd5b5061016361015e366004611247565b6103de565b6040516001600160e01b0319909116815260200161013a565b34801561018857600080fd5b506101ac6101973660046112ba565b60009081526020819052604090206001015490565b60405190815260200161013a565b3480156101c657600080fd5b506101ac6101d53660046112d3565b610445565b3480156101e657600080fd5b506101fa6101f5366004611314565b6104eb565b005b34801561020857600080fd5b506101fa610217366004611314565b610516565b34801561022857600080fd5b506102526102373660046112ba565b6000908152600360205260409020546001600160a01b031690565b6040516001600160a01b03909116815260200161013a565b34801561027657600080fd5b5061012e610285366004611314565b61054e565b34801561029657600080fd5b506101fa6102a5366004611344565b610577565b3480156102b657600080fd5b5061012e6102c53660046112ba565b6105c6565b3480156102d657600080fd5b506101fa6102e5366004611370565b610607565b3480156102f657600080fd5b506101ac600081565b34801561030b57600080fd5b5061016361031a3660046113ea565b6106a4565b6101fa610745565b34801561033357600080fd5b506101fa610342366004611344565b610772565b34801561035357600080fd5b506101fa610362366004611314565b610805565b34801561037357600080fd5b506101fa610382366004611314565b61082a565b34801561039357600080fd5b506101636103a23660046114a9565b610957565b60006001600160e01b03198216637965db0b60e01b14806103d857506301ffc9a760e01b6001600160e01b03198316145b92915050565b600082826040516103f0929190611525565b60405180910390207fa05d90f300156ad1b545bc5d8197024456f21d22a708f5af04dd293e3d60525187878760405161042b93929190611535565b60405180910390a250630a85bd0160e11b95945050505050565b600080610451816109d5565b600180546000918261046283611559565b90915550600081815260046020526040902090915084906104838282611580565b505060008181526003602090815260409182902080546001600160a01b0319166001600160a01b03891690811790915591518381527fbdb18c791cf7b0f77a70457cb8f4bfe55ca4fcb800b9e04418cf93c2a17eea10910160405180910390a2949350505050565b600082815260208190526040902060010154610506816109d5565b61051083836109e2565b50505050565b6001600160a01b038116331461053f5760405163334bd91960e11b815260040160405180910390fd5b6105498282610a74565b505050565b6000918252602082815260408084206001600160a01b0393909316845291905290205460ff1690565b61058c6001600160a01b038316333084610adf565b6040805160008152602081018390526001600160a01b03841691339160008051602061172183398151915291015b60405180910390a35050565b6000806105d5610100846115e1565b905060006105e5610100856115f5565b60009283526002602052604090922054600190921b9182169091149392505050565b604051637921219560e11b81526001600160a01b0384169063f242432a90610639903390309087908790600401611609565b600060405180830381600087803b15801561065357600080fd5b505af1158015610667573d6000803e3d6000fd5b505060408051858152602081018590526001600160a01b0387169350339250600080516020611721833981519152910160405180910390a3505050565b600082826040516106b6929190611525565b604051809103902085856040516106ce929190611641565b604051809103902088886040516106e6929190611641565b604080519182900382206001600160a01b03808f1684528d166020840152917f2360e6b28d144bcde27ca99baa660f822a59e919f243c01dfaec5a55986df5f5910160405180910390a45063bc197c8160e01b98975050505050505050565b604080516000808252346020830152913391600080516020611721833981519152910160405180910390a3565b604051632142170760e11b81526001600160a01b038316906342842e0e906107a290339030908690600401611535565b600060405180830381600087803b1580156107bc57600080fd5b505af11580156107d0573d6000803e3d6000fd5b505060408051848152600160208201526001600160a01b038616935033925060008051602061172183398151915291016105ba565b600082815260208190526040902060010154610820816109d5565b6105108383610a74565b6000828152600360205260409020546001600160a01b038281169116146108885760405162461bcd60e51b815260206004820152600d60248201526c4e6f7420656c696769626c652160981b60448201526064015b60405180910390fd5b610891826105c6565b156108b25760405163598b3dfd60e11b81526004810183905260240161087f565b60008281526004602090815260409182902082516080810184528154815260018201549281019290925260028101546001600160a01b031692820192909252600390910154606082015261090583610b39565b61090f8282610b77565b816001600160a01b03167f6aa3eac93d079e5e100b1029be716caa33586c96aa4baac390669fb5c2a212128460405161094a91815260200190565b60405180910390a2505050565b60008282604051610969929190611525565b604080519182900382206001600160a01b03808b1684528916602084015290820187905260608201869052907f01109c91bca177ae1324bc2fc89be4b2573d2e59ad0cc75b1f3d3aa807814d369060800160405180910390a25063f23a6e6160e01b9695505050505050565b6109df8133610c6d565b50565b60006109ee838361054e565b610a6c576000838152602081815260408083206001600160a01b03861684529091529020805460ff19166001179055610a243390565b6001600160a01b0316826001600160a01b0316847f2f8788117e7eff1d82e926ec794901d17c78024a50270940304540a733656f0d60405160405180910390a45060016103d8565b5060006103d8565b6000610a80838361054e565b15610a6c576000838152602081815260408083206001600160a01b0386168085529252808320805460ff1916905551339286917ff6391f5c32d9c69d2a47ea670b442974b53935d1edc7fd64eb21e047a839171b9190a45060016103d8565b61051084856001600160a01b03166323b872dd868686604051602401610b0793929190611535565b604051602081830303815290604052915060e01b6020820180516001600160e01b038381831617835250505050610ca6565b6000610b47610100836115e1565b90506000610b57610100846115f5565b6000928352600260205260409092208054600190931b9092179091555050565b6060810151600003610b9557610b91828260000151610d09565b5050565b7f8ae85d849167ff996c04040c44924fd364217285e4cad818292c7ac37c0a345b816060015103610bd357610b918160400151838360000151610d8f565b7f73ad2146b3d3a286642c794379d750360a2d53a3459a11b3e5d6cc900f55f44a816060015103610c1157610b918160400151838360200151610e93565b7f973bb64086f173ec8099b7ed3d43da984f4a332e4417a08bc6a286e6402b0586816060015103610c5457610b9181604001518383602001518460000151610f8e565b6040516335e2df5560e21b815260040160405180910390fd5b610c77828261054e565b610b915760405163e2517d3f60e01b81526001600160a01b03821660048201526024810183905260440161087f565b6000610cbb6001600160a01b03841683611088565b90508051600014158015610ce0575080806020019051810190610cde919061166a565b155b1561054957604051635274afe760e01b81526001600160a01b038416600482015260240161087f565b80471015610d595760405162461bcd60e51b815260206004820152601a60248201527f496e73756666696369656e742045746865722062616c616e6365000000000000604482015260640161087f565b6040516001600160a01b0383169082156108fc029083906000818181858888f19350505050158015610549573d6000803e3d6000fd5b6040516370a0823160e01b8152306004820152839082906001600160a01b038316906370a0823190602401602060405180830381865afa158015610dd7573d6000803e3d6000fd5b505050506040513d601f19601f82011682018060405250810190610dfb919061168c565b1015610e195760405162461bcd60e51b815260040161087f906116a5565b60405163a9059cbb60e01b81526001600160a01b0384811660048301526024820184905282169063a9059cbb906044016020604051808303816000875af1158015610e68573d6000803e3d6000fd5b505050506040513d601f19601f82011682018060405250810190610e8c919061166a565b5050505050565b6040516331a9108f60e11b815260048101829052839030906001600160a01b03831690636352211e90602401602060405180830381865afa158015610edc573d6000803e3d6000fd5b505050506040513d601f19601f82011682018060405250810190610f0091906116d4565b6001600160a01b031614610f265760405162461bcd60e51b815260040161087f906116a5565b604051632142170760e11b81526001600160a01b038216906342842e0e90610f5690309087908790600401611535565b600060405180830381600087803b158015610f7057600080fd5b505af1158015610f84573d6000803e3d6000fd5b5050505050505050565b604051627eeac760e11b815230600482015260248101839052849082906001600160a01b0383169062fdd58e90604401602060405180830381865afa158015610fdb573d6000803e3d6000fd5b505050506040513d601f19601f82011682018060405250810190610fff919061168c565b101561101d5760405162461bcd60e51b815260040161087f906116a5565b604051637921219560e11b81526001600160a01b0382169063f242432a9061104f903090889088908890600401611609565b600060405180830381600087803b15801561106957600080fd5b505af115801561107d573d6000803e3d6000fd5b505050505050505050565b60606110968383600061109d565b9392505050565b6060814710156110c25760405163cd78605960e01b815230600482015260240161087f565b600080856001600160a01b031684866040516110de91906116f1565b60006040518083038185875af1925050503d806000811461111b576040519150601f19603f3d011682016040523d82523d6000602084013e611120565b606091505b509150915061113086838361113a565b9695505050505050565b60608261114f5761114a82611196565b611096565b815115801561116657506001600160a01b0384163b155b1561118f57604051639996b31560e01b81526001600160a01b038516600482015260240161087f565b5080611096565b8051156111a65780518082602001fd5b604051630a12f52160e11b815260040160405180910390fd5b6000602082840312156111d157600080fd5b81356001600160e01b03198116811461109657600080fd5b6001600160a01b03811681146109df57600080fd5b60008083601f84011261121057600080fd5b50813567ffffffffffffffff81111561122857600080fd5b60208301915083602082850101111561124057600080fd5b9250929050565b60008060008060006080868803121561125f57600080fd5b853561126a816111e9565b9450602086013561127a816111e9565b935060408601359250606086013567ffffffffffffffff81111561129d57600080fd5b6112a9888289016111fe565b969995985093965092949392505050565b6000602082840312156112cc57600080fd5b5035919050565b60008082840360a08112156112e757600080fd5b83356112f2816111e9565b92506080601f198201121561130657600080fd5b506020830190509250929050565b6000806040838503121561132757600080fd5b823591506020830135611339816111e9565b809150509250929050565b6000806040838503121561135757600080fd5b8235611362816111e9565b946020939093013593505050565b60008060006060848603121561138557600080fd5b8335611390816111e9565b95602085013595506040909401359392505050565b60008083601f8401126113b757600080fd5b50813567ffffffffffffffff8111156113cf57600080fd5b6020830191508360208260051b850101111561124057600080fd5b60008060008060008060008060a0898b03121561140657600080fd5b8835611411816111e9565b97506020890135611421816111e9565b9650604089013567ffffffffffffffff8082111561143e57600080fd5b61144a8c838d016113a5565b909850965060608b013591508082111561146357600080fd5b61146f8c838d016113a5565b909650945060808b013591508082111561148857600080fd5b506114958b828c016111fe565b999c989b5096995094979396929594505050565b60008060008060008060a087890312156114c257600080fd5b86356114cd816111e9565b955060208701356114dd816111e9565b94506040870135935060608701359250608087013567ffffffffffffffff81111561150757600080fd5b61151389828a016111fe565b979a9699509497509295939492505050565b8183823760009101908152919050565b6001600160a01b039384168152919092166020820152604081019190915260600190565b60006001820161157957634e487b7160e01b600052601160045260246000fd5b5060010190565b81358155602082013560018201556002810160408301356115a0816111e9565b81546001600160a01b0319166001600160a01b03919091161790556060919091013560039190910155565b634e487b7160e01b600052601260045260246000fd5b6000826115f0576115f06115cb565b500490565b600082611604576116046115cb565b500690565b6001600160a01b0394851681529290931660208301526040820152606081019190915260a06080820181905260009082015260c00190565b60006001600160fb1b0383111561165757600080fd5b8260051b80858437919091019392505050565b60006020828403121561167c57600080fd5b8151801515811461109657600080fd5b60006020828403121561169e57600080fd5b5051919050565b602080825260159082015274496e73756666696369656e742062616c616e63652160581b604082015260600190565b6000602082840312156116e657600080fd5b8151611096816111e9565b6000825160005b8181101561171257602081860181015185830152016116f8565b50600092019182525091905056fe080c225c8e9d9f966820ef915f5f555d575e9c3a188f1252d19e94aa2250f09da2646970667358221220f885aca4cefe2accb77b9dfc9cc112b194556ba022ec5fe7368e38e2b0fa499564736f6c63430008140033",
  "devdoc": {
    "errors": {
      "AccessControlBadConfirmation()": [
        {
          "details": "The caller of a function is not the expected one. NOTE: Don't confuse with {AccessControlUnauthorizedAccount}."
        }
      ],
      "AccessControlUnauthorizedAccount(address,bytes32)": [
        {
          "details": "The `account` is missing a role."
        }
      ],
      "AddressEmptyCode(address)": [
        {
          "details": "There's no code at `target` (it is not a contract)."
        }
      ],
      "AddressInsufficientBalance(address)": [
        {
          "details": "The ETH balance of the account is not enough to perform the operation."
        }
      ],
      "FailedInnerCall()": [
        {
          "details": "A call to an address target failed. The target may have reverted."
        }
      ],
      "SafeERC20FailedOperation(address)": [
        {
          "details": "An operation with an ERC20 token failed."
        }
      ]
    },
    "events": {
      "RoleAdminChanged(bytes32,bytes32,bytes32)": {
        "details": "Emitted when `newAdminRole` is set as ``role``'s admin role, replacing `previousAdminRole` `DEFAULT_ADMIN_ROLE` is the starting admin for all roles, despite {RoleAdminChanged} not being emitted signaling this."
      },
      "RoleGranted(bytes32,address,address)": {
        "details": "Emitted when `account` is granted `role`. `sender` is the account that originated the contract call, an admin role bearer except when using {AccessControl-_setupRole}."
      },
      "RoleRevoked(bytes32,address,address)": {
        "details": "Emitted when `account` is revoked `role`. `sender` is the account that originated the contract call:   - if using `revokeRole`, it is the admin role bearer   - if using `renounceRole`, it is the role bearer (i.e. `account`)"
      }
    },
    "kind": "dev",
    "methods": {
      "claim(uint256,address)": {
        "details": "Function to claim reward by eligible user",
        "params": {
          "id": "The index of reward",
          "to": "The address to receive"
        }
      },
      "getRoleAdmin(bytes32)": {
        "details": "Returns the admin role that controls `role`. See {grantRole} and {revokeRole}. To change a role's admin, use {_setRoleAdmin}."
      },
      "grantRole(bytes32,address)": {
        "details": "Grants `role` to `account`. If `account` had not been already granted `role`, emits a {RoleGranted} event. Requirements: - the caller must have ``role``'s admin role. May emit a {RoleGranted} event."
      },
      "hasRole(bytes32,address)": {
        "details": "Returns `true` if `account` has been granted `role`."
      },
      "onERC1155BatchReceived(address,address,uint256[],uint256[],bytes)": {
        "details": "Handles the receipt of a multiple ERC1155 token types. This function is called at the end of a `safeBatchTransferFrom` after the balances have been updated. NOTE: To accept the transfer(s), this must return `bytes4(keccak256(\"onERC1155BatchReceived(address,address,uint256[],uint256[],bytes)\"))` (i.e. 0xbc197c81, or its own function selector).",
        "params": {
          "data": "Additional data with no specified format",
          "from": "The address which previously owned the token",
          "ids": "An array containing ids of each token being transferred (order and length must match values array)",
          "operator": "The address which initiated the batch transfer (i.e. msg.sender)",
          "values": "An array containing amounts of each token being transferred (order and length must match ids array)"
        },
        "returns": {
          "_0": "`bytes4(keccak256(\"onERC1155BatchReceived(address,address,uint256[],uint256[],bytes)\"))` if transfer is allowed"
        }
      },
      "onERC1155Received(address,address,uint256,uint256,bytes)": {
        "details": "Handles the receipt of a single ERC1155 token type. This function is called at the end of a `safeTransferFrom` after the balance has been updated. NOTE: To accept the transfer, this must return `bytes4(keccak256(\"onERC1155Received(address,address,uint256,uint256,bytes)\"))` (i.e. 0xf23a6e61, or its own function selector).",
        "params": {
          "data": "Additional data with no specified format",
          "from": "The address which previously owned the token",
          "id": "The ID of the token being transferred",
          "operator": "The address which initiated the transfer (i.e. msg.sender)",
          "value": "The amount of tokens being transferred"
        },
        "returns": {
          "_0": "`bytes4(keccak256(\"onERC1155Received(address,address,uint256,uint256,bytes)\"))` if transfer is allowed"
        }
      },
      "onERC721Received(address,address,uint256,bytes)": {
        "details": "Whenever an {IERC721} `tokenId` token is transferred to this contract via {IERC721-safeTransferFrom} by `operator` from `from`, this function is called. It must return its Solidity selector to confirm the token transfer. If any other value is returned or the interface is not implemented by the recipient, the transfer will be reverted. The selector can be obtained in Solidity with `IERC721Receiver.onERC721Received.selector`."
      },
      "renounceRole(bytes32,address)": {
        "details": "Revokes `role` from the calling account. Roles are often managed via {grantRole} and {revokeRole}: this function's purpose is to provide a mechanism for accounts to lose their privileges if they are compromised (such as when a trusted device is misplaced). If the calling account had been revoked `role`, emits a {RoleRevoked} event. Requirements: - the caller must be `callerConfirmation`. May emit a {RoleRevoked} event."
      },
      "revokeRole(bytes32,address)": {
        "details": "Revokes `role` from `account`. If `account` had been granted `role`, emits a {RoleRevoked} event. Requirements: - the caller must have ``role``'s admin role. May emit a {RoleRevoked} event."
      },
      "setRewardOwner(address,(uint256,uint256,address,bytes32))": {
        "details": "Function to set reward owner"
      },
      "supportsInterface(bytes4)": {
        "details": "See {IERC165-supportsInterface}."
      }
    },
    "version": 1
  },
  "userdoc": {
    "kind": "user",
    "methods": {},
    "version": 1
  },
  "storageLayout": {
    "storage": [
      {
        "astId": 26,
        "contract": "contracts/gacha/GachaStation.sol:GachaStation",
        "label": "_roles",
        "offset": 0,
        "slot": "0",
        "type": "t_mapping(t_bytes32,t_struct(RoleData)21_storage)"
      },
      {
        "astId": 6100,
        "contract": "contracts/gacha/GachaStation.sol:GachaStation",
        "label": "_nextRewardId",
        "offset": 0,
        "slot": "1",
        "type": "t_uint256"
      },
      {
        "astId": 6104,
        "contract": "contracts/gacha/GachaStation.sol:GachaStation",
        "label": "_claimedBitMap",
        "offset": 0,
        "slot": "2",
        "type": "t_mapping(t_uint256,t_uint256)"
      },
      {
        "astId": 6108,
        "contract": "contracts/gacha/GachaStation.sol:GachaStation",
        "label": "_owners",
        "offset": 0,
        "slot": "3",
        "type": "t_mapping(t_uint256,t_address)"
      },
      {
        "astId": 6113,
        "contract": "contracts/gacha/GachaStation.sol:GachaStation",
        "label": "_rewards",
        "offset": 0,
        "slot": "4",
        "type": "t_mapping(t_uint256,t_struct(Reward)6133_storage)"
      }
    ],
    "types": {
      "t_address": {
        "encoding": "inplace",
        "label": "address",
        "numberOfBytes": "20"
      },
      "t_bool": {
        "encoding": "inplace",
        "label": "bool",
        "numberOfBytes": "1"
      },
      "t_bytes32": {
        "encoding": "inplace",
        "label": "bytes32",
        "numberOfBytes": "32"
      },
      "t_mapping(t_address,t_bool)": {
        "encoding": "mapping",
        "key": "t_address",
        "label": "mapping(address => bool)",
        "numberOfBytes": "32",
        "value": "t_bool"
      },
      "t_mapping(t_bytes32,t_struct(RoleData)21_storage)": {
        "encoding": "mapping",
        "key": "t_bytes32",
        "label": "mapping(bytes32 => struct AccessControl.RoleData)",
        "numberOfBytes": "32",
        "value": "t_struct(RoleData)21_storage"
      },
      "t_mapping(t_uint256,t_address)": {
        "encoding": "mapping",
        "key": "t_uint256",
        "label": "mapping(uint256 => address)",
        "numberOfBytes": "32",
        "value": "t_address"
      },
      "t_mapping(t_uint256,t_struct(Reward)6133_storage)": {
        "encoding": "mapping",
        "key": "t_uint256",
        "label": "mapping(uint256 => struct GachaStation.Reward)",
        "numberOfBytes": "32",
        "value": "t_struct(Reward)6133_storage"
      },
      "t_mapping(t_uint256,t_uint256)": {
        "encoding": "mapping",
        "key": "t_uint256",
        "label": "mapping(uint256 => uint256)",
        "numberOfBytes": "32",
        "value": "t_uint256"
      },
      "t_struct(Reward)6133_storage": {
        "encoding": "inplace",
        "label": "struct GachaStation.Reward",
        "members": [
          {
            "astId": 6126,
            "contract": "contracts/gacha/GachaStation.sol:GachaStation",
            "label": "amount",
            "offset": 0,
            "slot": "0",
            "type": "t_uint256"
          },
          {
            "astId": 6128,
            "contract": "contracts/gacha/GachaStation.sol:GachaStation",
            "label": "tokenId",
            "offset": 0,
            "slot": "1",
            "type": "t_uint256"
          },
          {
            "astId": 6130,
            "contract": "contracts/gacha/GachaStation.sol:GachaStation",
            "label": "tokenAddr",
            "offset": 0,
            "slot": "2",
            "type": "t_address"
          },
          {
            "astId": 6132,
            "contract": "contracts/gacha/GachaStation.sol:GachaStation",
            "label": "tokenType",
            "offset": 0,
            "slot": "3",
            "type": "t_bytes32"
          }
        ],
        "numberOfBytes": "128"
      },
      "t_struct(RoleData)21_storage": {
        "encoding": "inplace",
        "label": "struct AccessControl.RoleData",
        "members": [
          {
            "astId": 18,
            "contract": "contracts/gacha/GachaStation.sol:GachaStation",
            "label": "hasRole",
            "offset": 0,
            "slot": "0",
            "type": "t_mapping(t_address,t_bool)"
          },
          {
            "astId": 20,
            "contract": "contracts/gacha/GachaStation.sol:GachaStation",
            "label": "adminRole",
            "offset": 0,
            "slot": "1",
            "type": "t_bytes32"
          }
        ],
        "numberOfBytes": "64"
      },
      "t_uint256": {
        "encoding": "inplace",
        "label": "uint256",
        "numberOfBytes": "32"
      }
    }
  }
}