{
  "address": "0xA9b43769E80C87b1aE24a97f26C5F60e7fFc36B5",
  "abi": [
    {
      "inputs": [
        {
          "internalType": "address",
          "name": "admin",
          "type": "address"
        }
      ],
      "stateMutability": "nonpayable",
      "type": "constructor"
    },
    {
      "inputs": [],
      "name": "AccessControlBadConfirmation",
      "type": "error"
    },
    {
      "inputs": [
        {
          "internalType": "address",
          "name": "account",
          "type": "address"
        },
        {
          "internalType": "bytes32",
          "name": "neededRole",
          "type": "bytes32"
        }
      ],
      "name": "AccessControlUnauthorizedAccount",
      "type": "error"
    },
    {
      "inputs": [
        {
          "internalType": "address",
          "name": "target",
          "type": "address"
        }
      ],
      "name": "AddressEmptyCode",
      "type": "error"
    },
    {
      "inputs": [
        {
          "internalType": "address",
          "name": "account",
          "type": "address"
        }
      ],
      "name": "AddressInsufficientBalance",
      "type": "error"
    },
    {
      "inputs": [
        {
          "internalType": "uint256",
          "name": "id",
          "type": "uint256"
        }
      ],
      "name": "AlreadyClaimed",
      "type": "error"
    },
    {
      "inputs": [],
      "name": "FailedInnerCall",
      "type": "error"
    },
    {
      "inputs": [
        {
          "internalType": "address",
          "name": "token",
          "type": "address"
        }
      ],
      "name": "SafeERC20FailedOperation",
      "type": "error"
    },
    {
      "inputs": [],
      "name": "UnsupportedTokenType",
      "type": "error"
    },
    {
      "anonymous": false,
      "inputs": [
        {
          "indexed": false,
          "internalType": "uint256",
          "name": "id",
          "type": "uint256"
        },
        {
          "indexed": true,
          "internalType": "address",
          "name": "owner",
          "type": "address"
        }
      ],
      "name": "Claimed",
      "type": "event"
    },
    {
      "anonymous": false,
      "inputs": [
        {
          "indexed": false,
          "internalType": "address",
          "name": "operator",
          "type": "address"
        },
        {
          "indexed": false,
          "internalType": "address",
          "name": "from",
          "type": "address"
        },
        {
          "indexed": true,
          "internalType": "uint256[]",
          "name": "ids",
          "type": "uint256[]"
        },
        {
          "indexed": true,
          "internalType": "uint256[]",
          "name": "values",
          "type": "uint256[]"
        },
        {
          "indexed": true,
          "internalType": "bytes",
          "name": "data",
          "type": "bytes"
        }
      ],
      "name": "ERC1155BatchReceived",
      "type": "event"
    },
    {
      "anonymous": false,
      "inputs": [
        {
          "indexed": false,
          "internalType": "address",
          "name": "operator",
          "type": "address"
        },
        {
          "indexed": false,
          "internalType": "address",
          "name": "from",
          "type": "address"
        },
        {
          "indexed": false,
          "internalType": "uint256",
          "name": "id",
          "type": "uint256"
        },
        {
          "indexed": false,
          "internalType": "uint256",
          "name": "value",
          "type": "uint256"
        },
        {
          "indexed": true,
          "internalType": "bytes",
          "name": "data",
          "type": "bytes"
        }
      ],
      "name": "ERC1155Received",
      "type": "event"
    },
    {
      "anonymous": false,
      "inputs": [
        {
          "indexed": false,
          "internalType": "address",
          "name": "operator",
          "type": "address"
        },
        {
          "indexed": false,
          "internalType": "address",
          "name": "from",
          "type": "address"
        },
        {
          "indexed": false,
          "internalType": "uint256",
          "name": "tokenId",
          "type": "uint256"
        },
        {
          "indexed": true,
          "internalType": "bytes",
          "name": "data",
          "type": "bytes"
        }
      ],
      "name": "ERC721Received",
      "type": "event"
    },
    {
      "anonymous": false,
      "inputs": [
        {
          "indexed": false,
          "internalType": "uint256",
          "name": "id",
          "type": "uint256"
        },
        {
          "indexed": true,
          "internalType": "address",
          "name": "owner",
          "type": "address"
        }
      ],
      "name": "OwnershipGranted",
      "type": "event"
    },
    {
      "anonymous": false,
      "inputs": [
        {
          "indexed": true,
          "internalType": "bytes32",
          "name": "role",
          "type": "bytes32"
        },
        {
          "indexed": true,
          "internalType": "bytes32",
          "name": "previousAdminRole",
          "type": "bytes32"
        },
        {
          "indexed": true,
          "internalType": "bytes32",
          "name": "newAdminRole",
          "type": "bytes32"
        }
      ],
      "name": "RoleAdminChanged",
      "type": "event"
    },
    {
      "anonymous": false,
      "inputs": [
        {
          "indexed": true,
          "internalType": "bytes32",
          "name": "role",
          "type": "bytes32"
        },
        {
          "indexed": true,
          "internalType": "address",
          "name": "account",
          "type": "address"
        },
        {
          "indexed": true,
          "internalType": "address",
          "name": "sender",
          "type": "address"
        }
      ],
      "name": "RoleGranted",
      "type": "event"
    },
    {
      "anonymous": false,
      "inputs": [
        {
          "indexed": true,
          "internalType": "bytes32",
          "name": "role",
          "type": "bytes32"
        },
        {
          "indexed": true,
          "internalType": "address",
          "name": "account",
          "type": "address"
        },
        {
          "indexed": true,
          "internalType": "address",
          "name": "sender",
          "type": "address"
        }
      ],
      "name": "RoleRevoked",
      "type": "event"
    },
    {
      "anonymous": false,
      "inputs": [
        {
          "indexed": true,
          "internalType": "address",
          "name": "depositor",
          "type": "address"
        },
        {
          "indexed": true,
          "internalType": "address",
          "name": "token",
          "type": "address"
        },
        {
          "indexed": false,
          "internalType": "uint256",
          "name": "tokenId",
          "type": "uint256"
        },
        {
          "indexed": false,
          "internalType": "uint256",
          "name": "amount",
          "type": "uint256"
        }
      ],
      "name": "TokenDeposited",
      "type": "event"
    },
    {
      "stateMutability": "payable",
      "type": "fallback"
    },
    {
      "inputs": [],
      "name": "DEFAULT_ADMIN_ROLE",
      "outputs": [
        {
          "internalType": "bytes32",
          "name": "",
          "type": "bytes32"
        }
      ],
      "stateMutability": "view",
      "type": "function"
    },
    {
      "inputs": [
        {
          "internalType": "uint256",
          "name": "id",
          "type": "uint256"
        },
        {
          "internalType": "address",
          "name": "to",
          "type": "address"
        }
      ],
      "name": "claim",
      "outputs": [],
      "stateMutability": "nonpayable",
      "type": "function"
    },
    {
      "inputs": [
        {
          "internalType": "uint256",
          "name": "id",
          "type": "uint256"
        }
      ],
      "name": "getRewardOwner",
      "outputs": [
        {
          "internalType": "address",
          "name": "",
          "type": "address"
        }
      ],
      "stateMutability": "view",
      "type": "function"
    },
    {
      "inputs": [
        {
          "internalType": "bytes32",
          "name": "role",
          "type": "bytes32"
        }
      ],
      "name": "getRoleAdmin",
      "outputs": [
        {
          "internalType": "bytes32",
          "name": "",
          "type": "bytes32"
        }
      ],
      "stateMutability": "view",
      "type": "function"
    },
    {
      "inputs": [
        {
          "internalType": "bytes32",
          "name": "role",
          "type": "bytes32"
        },
        {
          "internalType": "address",
          "name": "account",
          "type": "address"
        }
      ],
      "name": "grantRole",
      "outputs": [],
      "stateMutability": "nonpayable",
      "type": "function"
    },
    {
      "inputs": [
        {
          "internalType": "bytes32",
          "name": "role",
          "type": "bytes32"
        },
        {
          "internalType": "address",
          "name": "account",
          "type": "address"
        }
      ],
      "name": "hasRole",
      "outputs": [
        {
          "internalType": "bool",
          "name": "",
          "type": "bool"
        }
      ],
      "stateMutability": "view",
      "type": "function"
    },
    {
      "inputs": [
        {
          "internalType": "uint256",
          "name": "id",
          "type": "uint256"
        }
      ],
      "name": "isClaimed",
      "outputs": [
        {
          "internalType": "bool",
          "name": "",
          "type": "bool"
        }
      ],
      "stateMutability": "view",
      "type": "function"
    },
    {
      "inputs": [
        {
          "internalType": "address",
          "name": "operator",
          "type": "address"
        },
        {
          "internalType": "address",
          "name": "from",
          "type": "address"
        },
        {
          "internalType": "uint256[]",
          "name": "ids",
          "type": "uint256[]"
        },
        {
          "internalType": "uint256[]",
          "name": "values",
          "type": "uint256[]"
        },
        {
          "internalType": "bytes",
          "name": "data",
          "type": "bytes"
        }
      ],
      "name": "onERC1155BatchReceived",
      "outputs": [
        {
          "internalType": "bytes4",
          "name": "",
          "type": "bytes4"
        }
      ],
      "stateMutability": "nonpayable",
      "type": "function"
    },
    {
      "inputs": [
        {
          "internalType": "address",
          "name": "operator",
          "type": "address"
        },
        {
          "internalType": "address",
          "name": "from",
          "type": "address"
        },
        {
          "internalType": "uint256",
          "name": "id",
          "type": "uint256"
        },
        {
          "internalType": "uint256",
          "name": "value",
          "type": "uint256"
        },
        {
          "internalType": "bytes",
          "name": "data",
          "type": "bytes"
        }
      ],
      "name": "onERC1155Received",
      "outputs": [
        {
          "internalType": "bytes4",
          "name": "",
          "type": "bytes4"
        }
      ],
      "stateMutability": "nonpayable",
      "type": "function"
    },
    {
      "inputs": [
        {
          "internalType": "address",
          "name": "operator",
          "type": "address"
        },
        {
          "internalType": "address",
          "name": "from",
          "type": "address"
        },
        {
          "internalType": "uint256",
          "name": "tokenId",
          "type": "uint256"
        },
        {
          "internalType": "bytes",
          "name": "data",
          "type": "bytes"
        }
      ],
      "name": "onERC721Received",
      "outputs": [
        {
          "internalType": "bytes4",
          "name": "",
          "type": "bytes4"
        }
      ],
      "stateMutability": "nonpayable",
      "type": "function"
    },
    {
      "inputs": [
        {
          "internalType": "bytes32",
          "name": "role",
          "type": "bytes32"
        },
        {
          "internalType": "address",
          "name": "callerConfirmation",
          "type": "address"
        }
      ],
      "name": "renounceRole",
      "outputs": [],
      "stateMutability": "nonpayable",
      "type": "function"
    },
    {
      "inputs": [
        {
          "internalType": "bytes32",
          "name": "role",
          "type": "bytes32"
        },
        {
          "internalType": "address",
          "name": "account",
          "type": "address"
        }
      ],
      "name": "revokeRole",
      "outputs": [],
      "stateMutability": "nonpayable",
      "type": "function"
    },
    {
      "inputs": [
        {
          "internalType": "uint256",
          "name": "id",
          "type": "uint256"
        }
      ],
      "name": "rewards",
      "outputs": [
        {
          "internalType": "uint256",
          "name": "amount",
          "type": "uint256"
        },
        {
          "internalType": "uint256",
          "name": "tokenId",
          "type": "uint256"
        },
        {
          "internalType": "address",
          "name": "tokenAddr",
          "type": "address"
        },
        {
          "internalType": "bytes32",
          "name": "tokenType",
          "type": "bytes32"
        }
      ],
      "stateMutability": "view",
      "type": "function"
    },
    {
      "inputs": [
        {
          "internalType": "address",
          "name": "owner",
          "type": "address"
        },
        {
          "components": [
            {
              "internalType": "uint256",
              "name": "amount",
              "type": "uint256"
            },
            {
              "internalType": "uint256",
              "name": "tokenId",
              "type": "uint256"
            },
            {
              "internalType": "address",
              "name": "tokenAddr",
              "type": "address"
            },
            {
              "internalType": "bytes32",
              "name": "tokenType",
              "type": "bytes32"
            }
          ],
          "internalType": "struct GachaStation.Reward",
          "name": "reward",
          "type": "tuple"
        }
      ],
      "name": "setRewardOwner",
      "outputs": [],
      "stateMutability": "payable",
      "type": "function"
    },
    {
      "inputs": [
        {
          "internalType": "bytes4",
          "name": "interfaceId",
          "type": "bytes4"
        }
      ],
      "name": "supportsInterface",
      "outputs": [
        {
          "internalType": "bool",
          "name": "",
          "type": "bool"
        }
      ],
      "stateMutability": "view",
      "type": "function"
    },
    {
      "inputs": [
        {
          "internalType": "uint256",
          "name": "_amount",
          "type": "uint256"
        }
      ],
      "name": "withdraw",
      "outputs": [],
      "stateMutability": "nonpayable",
      "type": "function"
    },
    {
      "inputs": [
        {
          "internalType": "address",
          "name": "_token",
          "type": "address"
        },
        {
          "internalType": "uint256",
          "name": "_tokenId",
          "type": "uint256"
        },
        {
          "internalType": "uint256",
          "name": "_amount",
          "type": "uint256"
        }
      ],
      "name": "withdrawERC1155",
      "outputs": [],
      "stateMutability": "nonpayable",
      "type": "function"
    },
    {
      "inputs": [
        {
          "internalType": "address",
          "name": "_token",
          "type": "address"
        },
        {
          "internalType": "uint256",
          "name": "_amount",
          "type": "uint256"
        }
      ],
      "name": "withdrawERC20",
      "outputs": [],
      "stateMutability": "nonpayable",
      "type": "function"
    },
    {
      "inputs": [
        {
          "internalType": "address",
          "name": "_token",
          "type": "address"
        },
        {
          "internalType": "uint256",
          "name": "_tokenId",
          "type": "uint256"
        }
      ],
      "name": "withdrawERC721",
      "outputs": [],
      "stateMutability": "nonpayable",
      "type": "function"
    },
    {
      "stateMutability": "payable",
      "type": "receive"
    }
  ],
  "transactionHash": "0x0addb1638d704172050c6df47ccb7a06495a06c0fb68ff212a82e32c6a1c08e1",
  "args": [
    "0x865260E7825C13fFB62E8127b1015Da670205502"
  ],
  "numDeployments": 2,
  "solcInputHash": "657b1d566bc5aa8a3c02c15d0f67794d",
  "bytecode": "0x60806040523480156200001157600080fd5b5060405162001c3838038062001c388339810160408190526200003491620000f8565b6200004160008262000049565b50506200012a565b6000828152602081815260408083206001600160a01b038516845290915281205460ff16620000ee576000838152602081815260408083206001600160a01b03861684529091529020805460ff19166001179055620000a53390565b6001600160a01b0316826001600160a01b0316847f2f8788117e7eff1d82e926ec794901d17c78024a50270940304540a733656f0d60405160405180910390a4506001620000f2565b5060005b92915050565b6000602082840312156200010b57600080fd5b81516001600160a01b03811681146200012357600080fd5b9392505050565b611afe806200013a6000396000f3fe60806040526004361061010c5760003560e01c806391d148541161009a578063d547741f11610061578063d547741f14610337578063ddd5e1b214610357578063f23a6e6114610377578063f301af4214610397578063f3e414f81461041457005b806391d14854146102a25780639e34070f146102c2578063a1db9782146102e2578063a217fddf14610302578063bc197c811461031757005b80632e1a7d4d116100de5780632e1a7d4d146101d45780632f2ff15d146101f457806336568abe1461021457806339ead7201461023457806364d348061461025457005b806301ffc9a714610115578063150b7a021461014a578063248a9ca3146101835780632d2135a5146101c157005b3661011357005b005b34801561012157600080fd5b506101356101303660046114cb565b610434565b60405190151581526020015b60405180910390f35b34801561015657600080fd5b5061016a610165366004611553565b61046b565b6040516001600160e01b03199091168152602001610141565b34801561018f57600080fd5b506101b361019e3660046115c6565b60009081526020819052604090206001015490565b604051908152602001610141565b6101136101cf3660046115df565b6104d2565b3480156101e057600080fd5b506101136101ef3660046115c6565b61058c565b34801561020057600080fd5b5061011361020f366004611620565b610614565b34801561022057600080fd5b5061011361022f366004611620565b61063f565b34801561024057600080fd5b5061011361024f366004611650565b610672565b34801561026057600080fd5b5061028a61026f3660046115c6565b6000908152600360205260409020546001600160a01b031690565b6040516001600160a01b039091168152602001610141565b3480156102ae57600080fd5b506101356102bd366004611620565b6106ea565b3480156102ce57600080fd5b506101356102dd3660046115c6565b610713565b3480156102ee57600080fd5b506101136102fd366004611685565b610754565b34801561030e57600080fd5b506101b3600081565b34801561032357600080fd5b5061016a6103323660046116f6565b610774565b34801561034357600080fd5b50610113610352366004611620565b610815565b34801561036357600080fd5b50610113610372366004611620565b61083a565b34801561038357600080fd5b5061016a6103923660046117b5565b610962565b3480156103a357600080fd5b506103e56103b23660046115c6565b6004602052600090815260409020805460018201546002830154600390930154919290916001600160a01b039091169084565b604051610141949392919093845260208401929092526001600160a01b03166040830152606082015260800190565b34801561042057600080fd5b5061011361042f366004611685565b6109e0565b60006001600160e01b03198216637965db0b60e01b148061046557506301ffc9a760e01b6001600160e01b03198316145b92915050565b6000828260405161047d929190611831565b60405180910390207fa05d90f300156ad1b545bc5d8197024456f21d22a708f5af04dd293e3d6052518787876040516104b893929190611841565b60405180910390a250630a85bd0160e11b95945050505050565b60006104dd81610a55565b6104f46104ef36849003840184611865565b610a62565b6001805460009182610505836118e1565b90915550600081815260046020526040902090915083906105268282611908565b505060008181526003602090815260409182902080546001600160a01b0319166001600160a01b03881690811790915591518381527fbdb18c791cf7b0f77a70457cb8f4bfe55ca4fcb800b9e04418cf93c2a17eea10910160405180910390a250505050565b600061059781610a55565b814710156105e25760405162461bcd60e51b81526020600482015260136024820152724e6f7420656e6f7567682062616c616e63652160681b60448201526064015b60405180910390fd5b604051339083156108fc029084906000818181858888f1935050505015801561060f573d6000803e3d6000fd5b505050565b60008281526020819052604090206001015461062f81610a55565b6106398383610b4e565b50505050565b6001600160a01b03811633146106685760405163334bd91960e11b815260040160405180910390fd5b61060f8282610be0565b600061067d81610a55565b604051637921219560e11b815284906001600160a01b0382169063f242432a906106b1903090339089908990600401611953565b600060405180830381600087803b1580156106cb57600080fd5b505af11580156106df573d6000803e3d6000fd5b505050505050505050565b6000918252602082815260408084206001600160a01b0393909316845291905290205460ff1690565b600080610722610100846119a1565b90506000610732610100856119b5565b60009283526002602052604090922054600190921b9182169091149392505050565b600061075f81610a55565b826106396001600160a01b0382163385610c4b565b60008282604051610786929190611831565b6040518091039020858560405161079e9291906119c9565b604051809103902088886040516107b69291906119c9565b604080519182900382206001600160a01b03808f1684528d166020840152917f2360e6b28d144bcde27ca99baa660f822a59e919f243c01dfaec5a55986df5f5910160405180910390a45063bc197c8160e01b98975050505050505050565b60008281526020819052604090206001015461083081610a55565b6106398383610be0565b6000828152600360205260409020546001600160a01b038281169116146108935760405162461bcd60e51b815260206004820152600d60248201526c4e6f7420656c696769626c652160981b60448201526064016105d9565b61089c82610713565b156108bd5760405163598b3dfd60e11b8152600481018390526024016105d9565b60008281526004602090815260409182902082516080810184528154815260018201549281019290925260028101546001600160a01b031692820192909252600390910154606082015261091083610caa565b61091a8282610ce8565b816001600160a01b03167f6aa3eac93d079e5e100b1029be716caa33586c96aa4baac390669fb5c2a212128460405161095591815260200190565b60405180910390a2505050565b60008282604051610974929190611831565b604080519182900382206001600160a01b03808b1684528916602084015290820187905260608201869052907f01109c91bca177ae1324bc2fc89be4b2573d2e59ad0cc75b1f3d3aa807814d369060800160405180910390a25063f23a6e6160e01b9695505050505050565b60006109eb81610a55565b604051632142170760e11b815283906001600160a01b038216906342842e0e90610a1d90309033908890600401611841565b600060405180830381600087803b158015610a3757600080fd5b505af1158015610a4b573d6000803e3d6000fd5b5050505050505050565b610a5f8133610dc5565b50565b6060810151600003610a79578051610a5f90610dfe565b7fb7fbcb1a03fc61c2644a2146a8d83480606c2954646783d0aaf972707823e26d816060015103610ab657610a5f81604001518260000151610e7c565b7f9749deb3653bfc54e58b98cf0e2a5da19c8871ab9d8f2c3c80f47d5d9b4a5a3e816060015103610af357610a5f81604001518260200151610ecb565b7fcbf1c2488340bcd7dce993fb3693e2454b86004ce92fc9132eb888ff895bdc4d816060015103610b3557610a5f816040015182602001518360000151610f5e565b6040516335e2df5560e21b815260040160405180910390fd5b6000610b5a83836106ea565b610bd8576000838152602081815260408083206001600160a01b03861684529091529020805460ff19166001179055610b903390565b6001600160a01b0316826001600160a01b0316847f2f8788117e7eff1d82e926ec794901d17c78024a50270940304540a733656f0d60405160405180910390a4506001610465565b506000610465565b6000610bec83836106ea565b15610bd8576000838152602081815260408083206001600160a01b0386168085529252808320805460ff1916905551339286917ff6391f5c32d9c69d2a47ea670b442974b53935d1edc7fd64eb21e047a839171b9190a4506001610465565b6040516001600160a01b0383811660248301526044820183905261060f91859182169063a9059cbb906064015b604051602081830303815290604052915060e01b6020820180516001600160e01b038381831617835250505050610ffb565b6000610cb8610100836119a1565b90506000610cc8610100846119b5565b6000928352600260205260409092208054600190931b9092179091555050565b6060810151600003610d0657610d0282826000015161105e565b5050565b7fb7fbcb1a03fc61c2644a2146a8d83480606c2954646783d0aaf972707823e26d816060015103610d4457610d0281604001518383600001516110e4565b7f9749deb3653bfc54e58b98cf0e2a5da19c8871ab9d8f2c3c80f47d5d9b4a5a3e816060015103610d8257610d0281604001518383602001516111e8565b7fcbf1c2488340bcd7dce993fb3693e2454b86004ce92fc9132eb888ff895bdc4d816060015103610b3557610d02816040015183836020015184600001516112ab565b610dcf82826106ea565b610d025760405163e2517d3f60e01b81526001600160a01b0382166004820152602481018390526044016105d9565b803414610e4d5760405162461bcd60e51b815260206004820152601f60248201527f496e636f727265637420616d6f756e74206f662045746865722073656e74210060448201526064016105d9565b60408051600080825260208201849052913391600080516020611aa9833981519152910160405180910390a350565b610e916001600160a01b03831633308461136c565b6040805160008152602081018390526001600160a01b038416913391600080516020611aa983398151915291015b60405180910390a35050565b604051632142170760e11b81526001600160a01b038316906342842e0e90610efb90339030908690600401611841565b600060405180830381600087803b158015610f1557600080fd5b505af1158015610f29573d6000803e3d6000fd5b505060408051848152600160208201526001600160a01b0386169350339250600080516020611aa98339815191529101610ebf565b604051637921219560e11b81526001600160a01b0384169063f242432a90610f90903390309087908790600401611953565b600060405180830381600087803b158015610faa57600080fd5b505af1158015610fbe573d6000803e3d6000fd5b505060408051858152602081018590526001600160a01b0387169350339250600080516020611aa9833981519152910160405180910390a3505050565b60006110106001600160a01b03841683611394565b9050805160001415801561103557508080602001905181019061103391906119f2565b155b1561060f57604051635274afe760e01b81526001600160a01b03841660048201526024016105d9565b804710156110ae5760405162461bcd60e51b815260206004820152601a60248201527f496e73756666696369656e742045746865722062616c616e636500000000000060448201526064016105d9565b6040516001600160a01b0383169082156108fc029083906000818181858888f1935050505015801561060f573d6000803e3d6000fd5b6040516370a0823160e01b8152306004820152839082906001600160a01b038316906370a0823190602401602060405180830381865afa15801561112c573d6000803e3d6000fd5b505050506040513d601f19601f820116820180604052508101906111509190611a14565b101561116e5760405162461bcd60e51b81526004016105d990611a2d565b60405163a9059cbb60e01b81526001600160a01b0384811660048301526024820184905282169063a9059cbb906044016020604051808303816000875af11580156111bd573d6000803e3d6000fd5b505050506040513d601f19601f820116820180604052508101906111e191906119f2565b5050505050565b6040516331a9108f60e11b815260048101829052839030906001600160a01b03831690636352211e90602401602060405180830381865afa158015611231573d6000803e3d6000fd5b505050506040513d601f19601f820116820180604052508101906112559190611a5c565b6001600160a01b03161461127b5760405162461bcd60e51b81526004016105d990611a2d565b604051632142170760e11b81526001600160a01b038216906342842e0e90610a1d90309087908790600401611841565b604051627eeac760e11b815230600482015260248101839052849082906001600160a01b0383169062fdd58e90604401602060405180830381865afa1580156112f8573d6000803e3d6000fd5b505050506040513d601f19601f8201168201806040525081019061131c9190611a14565b101561133a5760405162461bcd60e51b81526004016105d990611a2d565b604051637921219560e11b81526001600160a01b0382169063f242432a906106b1903090889088908890600401611953565b61063984856001600160a01b03166323b872dd868686604051602401610c7893929190611841565b60606113a2838360006113a9565b9392505050565b6060814710156113ce5760405163cd78605960e01b81523060048201526024016105d9565b600080856001600160a01b031684866040516113ea9190611a79565b60006040518083038185875af1925050503d8060008114611427576040519150601f19603f3d011682016040523d82523d6000602084013e61142c565b606091505b509150915061143c868383611446565b9695505050505050565b60608261145b57611456826114a2565b6113a2565b815115801561147257506001600160a01b0384163b155b1561149b57604051639996b31560e01b81526001600160a01b03851660048201526024016105d9565b50806113a2565b8051156114b25780518082602001fd5b604051630a12f52160e11b815260040160405180910390fd5b6000602082840312156114dd57600080fd5b81356001600160e01b0319811681146113a257600080fd5b6001600160a01b0381168114610a5f57600080fd5b60008083601f84011261151c57600080fd5b50813567ffffffffffffffff81111561153457600080fd5b60208301915083602082850101111561154c57600080fd5b9250929050565b60008060008060006080868803121561156b57600080fd5b8535611576816114f5565b94506020860135611586816114f5565b935060408601359250606086013567ffffffffffffffff8111156115a957600080fd5b6115b58882890161150a565b969995985093965092949392505050565b6000602082840312156115d857600080fd5b5035919050565b60008082840360a08112156115f357600080fd5b83356115fe816114f5565b92506080601f198201121561161257600080fd5b506020830190509250929050565b6000806040838503121561163357600080fd5b823591506020830135611645816114f5565b809150509250929050565b60008060006060848603121561166557600080fd5b8335611670816114f5565b95602085013595506040909401359392505050565b6000806040838503121561169857600080fd5b82356116a3816114f5565b946020939093013593505050565b60008083601f8401126116c357600080fd5b50813567ffffffffffffffff8111156116db57600080fd5b6020830191508360208260051b850101111561154c57600080fd5b60008060008060008060008060a0898b03121561171257600080fd5b883561171d816114f5565b9750602089013561172d816114f5565b9650604089013567ffffffffffffffff8082111561174a57600080fd5b6117568c838d016116b1565b909850965060608b013591508082111561176f57600080fd5b61177b8c838d016116b1565b909650945060808b013591508082111561179457600080fd5b506117a18b828c0161150a565b999c989b5096995094979396929594505050565b60008060008060008060a087890312156117ce57600080fd5b86356117d9816114f5565b955060208701356117e9816114f5565b94506040870135935060608701359250608087013567ffffffffffffffff81111561181357600080fd5b61181f89828a0161150a565b979a9699509497509295939492505050565b8183823760009101908152919050565b6001600160a01b039384168152919092166020820152604081019190915260600190565b60006080828403121561187757600080fd5b6040516080810181811067ffffffffffffffff821117156118a857634e487b7160e01b600052604160045260246000fd5b8060405250823581526020830135602082015260408301356118c9816114f5565b60408201526060928301359281019290925250919050565b60006001820161190157634e487b7160e01b600052601160045260246000fd5b5060010190565b8135815560208201356001820155600281016040830135611928816114f5565b81546001600160a01b0319166001600160a01b03919091161790556060919091013560039190910155565b6001600160a01b0394851681529290931660208301526040820152606081019190915260a06080820181905260009082015260c00190565b634e487b7160e01b600052601260045260246000fd5b6000826119b0576119b061198b565b500490565b6000826119c4576119c461198b565b500690565b60006001600160fb1b038311156119df57600080fd5b8260051b80858437919091019392505050565b600060208284031215611a0457600080fd5b815180151581146113a257600080fd5b600060208284031215611a2657600080fd5b5051919050565b602080825260159082015274496e73756666696369656e742062616c616e63652160581b604082015260600190565b600060208284031215611a6e57600080fd5b81516113a2816114f5565b6000825160005b81811015611a9a5760208186018101518583015201611a80565b50600092019182525091905056fe080c225c8e9d9f966820ef915f5f555d575e9c3a188f1252d19e94aa2250f09da2646970667358221220b5c53a4ff4de972dba709aaa5e20f377772ecb90523877b0a2a3c1f1fe0898e764736f6c63430008140033",
  "devdoc": {
    "errors": {
      "AccessControlBadConfirmation()": [
        {
          "details": "The caller of a function is not the expected one. NOTE: Don't confuse with {AccessControlUnauthorizedAccount}."
        }
      ],
      "AccessControlUnauthorizedAccount(address,bytes32)": [
        {
          "details": "The `account` is missing a role."
        }
      ],
      "AddressEmptyCode(address)": [
        {
          "details": "There's no code at `target` (it is not a contract)."
        }
      ],
      "AddressInsufficientBalance(address)": [
        {
          "details": "The ETH balance of the account is not enough to perform the operation."
        }
      ],
      "FailedInnerCall()": [
        {
          "details": "A call to an address target failed. The target may have reverted."
        }
      ],
      "SafeERC20FailedOperation(address)": [
        {
          "details": "An operation with an ERC20 token failed."
        }
      ]
    },
    "events": {
      "RoleAdminChanged(bytes32,bytes32,bytes32)": {
        "details": "Emitted when `newAdminRole` is set as ``role``'s admin role, replacing `previousAdminRole` `DEFAULT_ADMIN_ROLE` is the starting admin for all roles, despite {RoleAdminChanged} not being emitted signaling this."
      },
      "RoleGranted(bytes32,address,address)": {
        "details": "Emitted when `account` is granted `role`. `sender` is the account that originated the contract call, an admin role bearer except when using {AccessControl-_setupRole}."
      },
      "RoleRevoked(bytes32,address,address)": {
        "details": "Emitted when `account` is revoked `role`. `sender` is the account that originated the contract call:   - if using `revokeRole`, it is the admin role bearer   - if using `renounceRole`, it is the role bearer (i.e. `account`)"
      }
    },
    "kind": "dev",
    "methods": {
      "claim(uint256,address)": {
        "details": "Function to claim reward by eligible user",
        "params": {
          "id": "The index of reward",
          "to": "The address to receive"
        }
      },
      "getRoleAdmin(bytes32)": {
        "details": "Returns the admin role that controls `role`. See {grantRole} and {revokeRole}. To change a role's admin, use {_setRoleAdmin}."
      },
      "grantRole(bytes32,address)": {
        "details": "Grants `role` to `account`. If `account` had not been already granted `role`, emits a {RoleGranted} event. Requirements: - the caller must have ``role``'s admin role. May emit a {RoleGranted} event."
      },
      "hasRole(bytes32,address)": {
        "details": "Returns `true` if `account` has been granted `role`."
      },
      "onERC1155BatchReceived(address,address,uint256[],uint256[],bytes)": {
        "details": "Handles the receipt of a multiple ERC1155 token types. This function is called at the end of a `safeBatchTransferFrom` after the balances have been updated. NOTE: To accept the transfer(s), this must return `bytes4(keccak256(\"onERC1155BatchReceived(address,address,uint256[],uint256[],bytes)\"))` (i.e. 0xbc197c81, or its own function selector).",
        "params": {
          "data": "Additional data with no specified format",
          "from": "The address which previously owned the token",
          "ids": "An array containing ids of each token being transferred (order and length must match values array)",
          "operator": "The address which initiated the batch transfer (i.e. msg.sender)",
          "values": "An array containing amounts of each token being transferred (order and length must match ids array)"
        },
        "returns": {
          "_0": "`bytes4(keccak256(\"onERC1155BatchReceived(address,address,uint256[],uint256[],bytes)\"))` if transfer is allowed"
        }
      },
      "onERC1155Received(address,address,uint256,uint256,bytes)": {
        "details": "Handles the receipt of a single ERC1155 token type. This function is called at the end of a `safeTransferFrom` after the balance has been updated. NOTE: To accept the transfer, this must return `bytes4(keccak256(\"onERC1155Received(address,address,uint256,uint256,bytes)\"))` (i.e. 0xf23a6e61, or its own function selector).",
        "params": {
          "data": "Additional data with no specified format",
          "from": "The address which previously owned the token",
          "id": "The ID of the token being transferred",
          "operator": "The address which initiated the transfer (i.e. msg.sender)",
          "value": "The amount of tokens being transferred"
        },
        "returns": {
          "_0": "`bytes4(keccak256(\"onERC1155Received(address,address,uint256,uint256,bytes)\"))` if transfer is allowed"
        }
      },
      "onERC721Received(address,address,uint256,bytes)": {
        "details": "Whenever an {IERC721} `tokenId` token is transferred to this contract via {IERC721-safeTransferFrom} by `operator` from `from`, this function is called. It must return its Solidity selector to confirm the token transfer. If any other value is returned or the interface is not implemented by the recipient, the transfer will be reverted. The selector can be obtained in Solidity with `IERC721Receiver.onERC721Received.selector`."
      },
      "renounceRole(bytes32,address)": {
        "details": "Revokes `role` from the calling account. Roles are often managed via {grantRole} and {revokeRole}: this function's purpose is to provide a mechanism for accounts to lose their privileges if they are compromised (such as when a trusted device is misplaced). If the calling account had been revoked `role`, emits a {RoleRevoked} event. Requirements: - the caller must be `callerConfirmation`. May emit a {RoleRevoked} event."
      },
      "revokeRole(bytes32,address)": {
        "details": "Revokes `role` from `account`. If `account` had been granted `role`, emits a {RoleRevoked} event. Requirements: - the caller must have ``role``'s admin role. May emit a {RoleRevoked} event."
      },
      "setRewardOwner(address,(uint256,uint256,address,bytes32))": {
        "details": "Function to set reward owner"
      },
      "supportsInterface(bytes4)": {
        "details": "See {IERC165-supportsInterface}."
      },
      "withdraw(uint256)": {
        "details": "Withdraw native token"
      },
      "withdrawERC1155(address,uint256,uint256)": {
        "details": "Withdraw ERC-1155"
      },
      "withdrawERC20(address,uint256)": {
        "details": "Withdraw ERC-20"
      },
      "withdrawERC721(address,uint256)": {
        "details": "Withdraw ERC-721"
      }
    },
    "version": 1
  },
  "userdoc": {
    "kind": "user",
    "methods": {},
    "version": 1
  },
  "storageLayout": {
    "storage": [
      {
        "astId": 26,
        "contract": "contracts/gacha/GachaStation.sol:GachaStation",
        "label": "_roles",
        "offset": 0,
        "slot": "0",
        "type": "t_mapping(t_bytes32,t_struct(RoleData)21_storage)"
      },
      {
        "astId": 4199,
        "contract": "contracts/gacha/GachaStation.sol:GachaStation",
        "label": "_nextRewardId",
        "offset": 0,
        "slot": "1",
        "type": "t_uint256"
      },
      {
        "astId": 4203,
        "contract": "contracts/gacha/GachaStation.sol:GachaStation",
        "label": "_claimedBitMap",
        "offset": 0,
        "slot": "2",
        "type": "t_mapping(t_uint256,t_uint256)"
      },
      {
        "astId": 4207,
        "contract": "contracts/gacha/GachaStation.sol:GachaStation",
        "label": "_owners",
        "offset": 0,
        "slot": "3",
        "type": "t_mapping(t_uint256,t_address)"
      },
      {
        "astId": 4212,
        "contract": "contracts/gacha/GachaStation.sol:GachaStation",
        "label": "rewards",
        "offset": 0,
        "slot": "4",
        "type": "t_mapping(t_uint256,t_struct(Reward)4232_storage)"
      }
    ],
    "types": {
      "t_address": {
        "encoding": "inplace",
        "label": "address",
        "numberOfBytes": "20"
      },
      "t_bool": {
        "encoding": "inplace",
        "label": "bool",
        "numberOfBytes": "1"
      },
      "t_bytes32": {
        "encoding": "inplace",
        "label": "bytes32",
        "numberOfBytes": "32"
      },
      "t_mapping(t_address,t_bool)": {
        "encoding": "mapping",
        "key": "t_address",
        "label": "mapping(address => bool)",
        "numberOfBytes": "32",
        "value": "t_bool"
      },
      "t_mapping(t_bytes32,t_struct(RoleData)21_storage)": {
        "encoding": "mapping",
        "key": "t_bytes32",
        "label": "mapping(bytes32 => struct AccessControl.RoleData)",
        "numberOfBytes": "32",
        "value": "t_struct(RoleData)21_storage"
      },
      "t_mapping(t_uint256,t_address)": {
        "encoding": "mapping",
        "key": "t_uint256",
        "label": "mapping(uint256 => address)",
        "numberOfBytes": "32",
        "value": "t_address"
      },
      "t_mapping(t_uint256,t_struct(Reward)4232_storage)": {
        "encoding": "mapping",
        "key": "t_uint256",
        "label": "mapping(uint256 => struct GachaStation.Reward)",
        "numberOfBytes": "32",
        "value": "t_struct(Reward)4232_storage"
      },
      "t_mapping(t_uint256,t_uint256)": {
        "encoding": "mapping",
        "key": "t_uint256",
        "label": "mapping(uint256 => uint256)",
        "numberOfBytes": "32",
        "value": "t_uint256"
      },
      "t_struct(Reward)4232_storage": {
        "encoding": "inplace",
        "label": "struct GachaStation.Reward",
        "members": [
          {
            "astId": 4225,
            "contract": "contracts/gacha/GachaStation.sol:GachaStation",
            "label": "amount",
            "offset": 0,
            "slot": "0",
            "type": "t_uint256"
          },
          {
            "astId": 4227,
            "contract": "contracts/gacha/GachaStation.sol:GachaStation",
            "label": "tokenId",
            "offset": 0,
            "slot": "1",
            "type": "t_uint256"
          },
          {
            "astId": 4229,
            "contract": "contracts/gacha/GachaStation.sol:GachaStation",
            "label": "tokenAddr",
            "offset": 0,
            "slot": "2",
            "type": "t_address"
          },
          {
            "astId": 4231,
            "contract": "contracts/gacha/GachaStation.sol:GachaStation",
            "label": "tokenType",
            "offset": 0,
            "slot": "3",
            "type": "t_bytes32"
          }
        ],
        "numberOfBytes": "128"
      },
      "t_struct(RoleData)21_storage": {
        "encoding": "inplace",
        "label": "struct AccessControl.RoleData",
        "members": [
          {
            "astId": 18,
            "contract": "contracts/gacha/GachaStation.sol:GachaStation",
            "label": "hasRole",
            "offset": 0,
            "slot": "0",
            "type": "t_mapping(t_address,t_bool)"
          },
          {
            "astId": 20,
            "contract": "contracts/gacha/GachaStation.sol:GachaStation",
            "label": "adminRole",
            "offset": 0,
            "slot": "1",
            "type": "t_bytes32"
          }
        ],
        "numberOfBytes": "64"
      },
      "t_uint256": {
        "encoding": "inplace",
        "label": "uint256",
        "numberOfBytes": "32"
      }
    }
  }
}